{
  "contractName": "CoinDispencer",
  "abi": [
    {
      "anonymous": false,
      "inputs": [
        {
          "indexed": true,
          "internalType": "address",
          "name": "owner",
          "type": "address"
        },
        {
          "indexed": true,
          "internalType": "address",
          "name": "spender",
          "type": "address"
        },
        {
          "indexed": false,
          "internalType": "uint256",
          "name": "value",
          "type": "uint256"
        }
      ],
      "name": "Approval",
      "type": "event"
    },
    {
      "anonymous": false,
      "inputs": [
        {
          "indexed": true,
          "internalType": "address",
          "name": "from",
          "type": "address"
        },
        {
          "indexed": true,
          "internalType": "address",
          "name": "to",
          "type": "address"
        },
        {
          "indexed": false,
          "internalType": "uint256",
          "name": "value",
          "type": "uint256"
        }
      ],
      "name": "Transfer",
      "type": "event"
    },
    {
      "inputs": [
        {
          "internalType": "address",
          "name": "owner",
          "type": "address"
        },
        {
          "internalType": "address",
          "name": "spender",
          "type": "address"
        }
      ],
      "name": "allowance",
      "outputs": [
        {
          "internalType": "uint256",
          "name": "",
          "type": "uint256"
        }
      ],
      "stateMutability": "view",
      "type": "function",
      "constant": true
    },
    {
      "inputs": [
        {
          "internalType": "address",
          "name": "spender",
          "type": "address"
        },
        {
          "internalType": "uint256",
          "name": "amount",
          "type": "uint256"
        }
      ],
      "name": "approve",
      "outputs": [
        {
          "internalType": "bool",
          "name": "",
          "type": "bool"
        }
      ],
      "stateMutability": "nonpayable",
      "type": "function"
    },
    {
      "inputs": [
        {
          "internalType": "address",
          "name": "account",
          "type": "address"
        }
      ],
      "name": "balanceOf",
      "outputs": [
        {
          "internalType": "uint256",
          "name": "",
          "type": "uint256"
        }
      ],
      "stateMutability": "view",
      "type": "function",
      "constant": true
    },
    {
      "inputs": [],
      "name": "decimals",
      "outputs": [
        {
          "internalType": "uint8",
          "name": "",
          "type": "uint8"
        }
      ],
      "stateMutability": "view",
      "type": "function",
      "constant": true
    },
    {
      "inputs": [
        {
          "internalType": "address",
          "name": "spender",
          "type": "address"
        },
        {
          "internalType": "uint256",
          "name": "subtractedValue",
          "type": "uint256"
        }
      ],
      "name": "decreaseAllowance",
      "outputs": [
        {
          "internalType": "bool",
          "name": "",
          "type": "bool"
        }
      ],
      "stateMutability": "nonpayable",
      "type": "function"
    },
    {
      "inputs": [
        {
          "internalType": "uint256",
          "name": "_team",
          "type": "uint256"
        }
      ],
      "name": "getOwner",
      "outputs": [
        {
          "internalType": "address",
          "name": "",
          "type": "address"
        }
      ],
      "stateMutability": "view",
      "type": "function",
      "constant": true
    },
    {
      "inputs": [
        {
          "internalType": "uint256",
          "name": "_team",
          "type": "uint256"
        }
      ],
      "name": "getPrice",
      "outputs": [
        {
          "internalType": "uint256",
          "name": "",
          "type": "uint256"
        }
      ],
      "stateMutability": "view",
      "type": "function",
      "constant": true
    },
    {
      "inputs": [
        {
          "internalType": "uint256",
          "name": "_team",
          "type": "uint256"
        }
      ],
      "name": "getPtcp",
      "outputs": [
        {
          "internalType": "address[]",
          "name": "",
          "type": "address[]"
        }
      ],
      "stateMutability": "view",
      "type": "function",
      "constant": true
    },
    {
      "inputs": [
        {
          "internalType": "uint256",
          "name": "_team",
          "type": "uint256"
        }
      ],
      "name": "getStake",
      "outputs": [
        {
          "internalType": "uint256[]",
          "name": "",
          "type": "uint256[]"
        }
      ],
      "stateMutability": "view",
      "type": "function",
      "constant": true
    },
    {
      "inputs": [
        {
          "internalType": "address",
          "name": "spender",
          "type": "address"
        },
        {
          "internalType": "uint256",
          "name": "addedValue",
          "type": "uint256"
        }
      ],
      "name": "increaseAllowance",
      "outputs": [
        {
          "internalType": "bool",
          "name": "",
          "type": "bool"
        }
      ],
      "stateMutability": "nonpayable",
      "type": "function"
    },
    {
      "inputs": [],
      "name": "name",
      "outputs": [
        {
          "internalType": "string",
          "name": "",
          "type": "string"
        }
      ],
      "stateMutability": "view",
      "type": "function",
      "constant": true
    },
    {
      "inputs": [
        {
          "internalType": "uint256",
          "name": "_team",
          "type": "uint256"
        },
        {
          "internalType": "address",
          "name": "_buyer",
          "type": "address"
        },
        {
          "internalType": "address[]",
          "name": "_ptcp",
          "type": "address[]"
        }
      ],
      "name": "purchase",
      "outputs": [],
      "stateMutability": "nonpayable",
      "type": "function"
    },
    {
      "inputs": [
        {
          "internalType": "uint256",
          "name": "_team",
          "type": "uint256"
        },
        {
          "internalType": "address[]",
          "name": "_ptcp",
          "type": "address[]"
        },
        {
          "internalType": "uint256[]",
          "name": "_stake",
          "type": "uint256[]"
        },
        {
          "internalType": "uint256",
          "name": "_price",
          "type": "uint256"
        }
      ],
      "name": "putBlock",
      "outputs": [],
      "stateMutability": "nonpayable",
      "type": "function"
    },
    {
      "inputs": [
        {
          "internalType": "uint256",
          "name": "_value",
          "type": "uint256"
        },
        {
          "internalType": "address",
          "name": "_editor",
          "type": "address"
        }
      ],
      "name": "retrieve",
      "outputs": [],
      "stateMutability": "nonpayable",
      "type": "function"
    },
    {
      "inputs": [],
      "name": "symbol",
      "outputs": [
        {
          "internalType": "string",
          "name": "",
          "type": "string"
        }
      ],
      "stateMutability": "view",
      "type": "function",
      "constant": true
    },
    {
      "inputs": [],
      "name": "totalSupply",
      "outputs": [
        {
          "internalType": "uint256",
          "name": "",
          "type": "uint256"
        }
      ],
      "stateMutability": "view",
      "type": "function",
      "constant": true
    },
    {
      "inputs": [
        {
          "internalType": "address",
          "name": "recipient",
          "type": "address"
        },
        {
          "internalType": "uint256",
          "name": "amount",
          "type": "uint256"
        }
      ],
      "name": "transfer",
      "outputs": [
        {
          "internalType": "bool",
          "name": "",
          "type": "bool"
        }
      ],
      "stateMutability": "nonpayable",
      "type": "function"
    },
    {
      "inputs": [
        {
          "internalType": "address",
          "name": "sender",
          "type": "address"
        },
        {
          "internalType": "address",
          "name": "recipient",
          "type": "address"
        },
        {
          "internalType": "uint256",
          "name": "amount",
          "type": "uint256"
        }
      ],
      "name": "transferFrom",
      "outputs": [
        {
          "internalType": "bool",
          "name": "",
          "type": "bool"
        }
      ],
      "stateMutability": "nonpayable",
      "type": "function"
    },
    {
      "inputs": [
        {
          "internalType": "uint8",
          "name": "_requirePoint",
          "type": "uint8"
        },
        {
          "internalType": "uint256",
          "name": "_calcedPirec",
          "type": "uint256"
        }
      ],
      "name": "changePoint",
      "outputs": [],
      "stateMutability": "payable",
      "type": "function",
      "payable": true
    },
    {
      "inputs": [],
      "name": "tempView",
      "outputs": [
        {
          "internalType": "uint256",
          "name": "",
          "type": "uint256"
        }
      ],
      "stateMutability": "view",
      "type": "function",
      "constant": true
    },
    {
      "inputs": [],
      "name": "userPoint",
      "outputs": [
        {
          "internalType": "uint256",
          "name": "",
          "type": "uint256"
        }
      ],
      "stateMutability": "view",
      "type": "function",
      "constant": true
    },
    {
      "inputs": [],
      "name": "connection",
      "outputs": [
        {
          "internalType": "string",
          "name": "",
          "type": "string"
        }
      ],
      "stateMutability": "view",
      "type": "function",
      "constant": true
    }
  ],
  "bytecode": "0x608060405260006006556040518060400160405280600881526020017f6661726577656c6c00000000000000000000000000000000000000000000000081525060079080519060200190620000569291906200010b565b503480156200006457600080fd5b506040518060400160405280600681526020017f54687265616400000000000000000000000000000000000000000000000000008152506040518060400160405280600481526020017f54485265000000000000000000000000000000000000000000000000000000008152508160039080519060200190620000e99291906200010b565b508060049080519060200190620001029291906200010b565b5050506200021f565b8280546200011990620001ea565b90600052602060002090601f0160209004810192826200013d576000855562000189565b82601f106200015857805160ff191683800117855562000189565b8280016001018555821562000189579182015b82811115620001885782518255916020019190600101906200016b565b5b5090506200019891906200019c565b5090565b5b80821115620001b75760008160009055506001016200019d565b5090565b7f4e487b7100000000000000000000000000000000000000000000000000000000600052602260045260246000fd5b600060028204905060018216806200020357607f821691505b602082108103620002195762000218620001bb565b5b50919050565b6125c0806200022f6000396000f3fe6080604052600436106101355760003560e01c806395d89b41116100ab578063ce325bf81161006f578063ce325bf814610467578063d20f7f26146104a4578063d34b7a21146104cd578063dd62ed3e146104f8578063e757223014610535578063fd19016c1461057257610135565b806395d89b411461035a578063a457c2d714610385578063a9059cbb146103c2578063b364fa00146103ff578063c41a360a1461042a57610135565b806323b872dd116100fd57806323b872dd14610212578063313ce5671461024f578063395093511461027a57806344133b3c146102b757806350ab647e146102e057806370a082311461031d57610135565b806306fdde031461013a578063077b7c6d14610165578063095ea7b314610181578063115e85f2146101be57806318160ddd146101e7575b600080fd5b34801561014657600080fd5b5061014f61059d565b60405161015c91906116e0565b60405180910390f35b61017f600480360381019061017a9190611785565b61062f565b005b34801561018d57600080fd5b506101a860048036038101906101a39190611823565b610719565b6040516101b5919061187e565b60405180910390f35b3480156101ca57600080fd5b506101e560048036038101906101e091906119e1565b610737565b005b3480156101f357600080fd5b506101fc61079b565b6040516102099190611a5f565b60405180910390f35b34801561021e57600080fd5b5061023960048036038101906102349190611a7a565b6107a5565b604051610246919061187e565b60405180910390f35b34801561025b57600080fd5b5061026461089d565b6040516102719190611adc565b60405180910390f35b34801561028657600080fd5b506102a1600480360381019061029c9190611823565b6108a6565b6040516102ae919061187e565b60405180910390f35b3480156102c357600080fd5b506102de60048036038101906102d99190611bba565b610952565b005b3480156102ec57600080fd5b5061030760048036038101906103029190611c59565b610a81565b6040516103149190611d44565b60405180910390f35b34801561032957600080fd5b50610344600480360381019061033f9190611d66565b610b25565b6040516103519190611a5f565b60405180910390f35b34801561036657600080fd5b5061036f610b6d565b60405161037c91906116e0565b60405180910390f35b34801561039157600080fd5b506103ac60048036038101906103a79190611823565b610bff565b6040516103b9919061187e565b60405180910390f35b3480156103ce57600080fd5b506103e960048036038101906103e49190611823565b610cea565b6040516103f6919061187e565b60405180910390f35b34801561040b57600080fd5b50610414610d08565b6040516104219190611a5f565b60405180910390f35b34801561043657600080fd5b50610451600480360381019061044c9190611c59565b610d62565b60405161045e9190611da2565b60405180910390f35b34801561047357600080fd5b5061048e60048036038101906104899190611c59565b610da2565b60405161049b9190611e7b565b60405180910390f35b3480156104b057600080fd5b506104cb60048036038101906104c69190611e9d565b610e10565b005b3480156104d957600080fd5b506104e2610e5b565b6040516104ef9190611a5f565b60405180910390f35b34801561050457600080fd5b5061051f600480360381019061051a9190611edd565b610e63565b60405161052c9190611a5f565b60405180910390f35b34801561054157600080fd5b5061055c60048036038101906105579190611c59565b610eea565b6040516105699190611a5f565b60405180910390f35b34801561057e57600080fd5b50610587610f0a565b60405161059491906116e0565b60405180910390f35b6060600380546105ac90611f4c565b80601f01602080910402602001604051908101604052809291908181526020018280546105d890611f4c565b80156106255780601f106105fa57610100808354040283529160200191610625565b820191906000526020600020905b81548152906001019060200180831161060857829003601f168201915b5050505050905090565b80803414610672576040517f08c379a000000000000000000000000000000000000000000000000000000000815260040161066990611fc9565b60405180910390fd5b82600860003373ffffffffffffffffffffffffffffffffffffffff1673ffffffffffffffffffffffffffffffffffffffff16815260200190815260200160002060010160006101000a81548160ff021916908360ff16021790555081600860003373ffffffffffffffffffffffffffffffffffffffff1673ffffffffffffffffffffffffffffffffffffffff16815260200190815260200160002060000181905550505050565b600061072d610726610f9c565b8484610fa4565b6001905092915050565b816005600085815260200190815260200160002060020160006101000a81548173ffffffffffffffffffffffffffffffffffffffff021916908373ffffffffffffffffffffffffffffffffffffffff160217905550610796838261116d565b505050565b6000600254905090565b60006107b284848461125f565b6000600160008673ffffffffffffffffffffffffffffffffffffffff1673ffffffffffffffffffffffffffffffffffffffff16815260200190815260200160002060006107fd610f9c565b73ffffffffffffffffffffffffffffffffffffffff1673ffffffffffffffffffffffffffffffffffffffff1681526020019081526020016000205490508281101561087d576040517f08c379a00000000000000000000000000000000000000000000000000000000081526004016108749061205b565b60405180910390fd5b61089185610889610f9c565b858403610fa4565b60019150509392505050565b60006012905090565b60006109486108b3610f9c565b8484600160006108c1610f9c565b73ffffffffffffffffffffffffffffffffffffffff1673ffffffffffffffffffffffffffffffffffffffff16815260200190815260200160002060008873ffffffffffffffffffffffffffffffffffffffff1673ffffffffffffffffffffffffffffffffffffffff1681526020019081526020016000205461094391906120aa565b610fa4565b6001905092915050565b60005b83518160ff1614610a5f5760056000868152602001908152602001600020600101848260ff168151811061098c5761098b612100565b5b60200260200101519080600181540180825580915050600190039060005260206000200160009091909190916101000a81548173ffffffffffffffffffffffffffffffffffffffff021916908373ffffffffffffffffffffffffffffffffffffffff16021790555060056000868152602001908152602001600020600301838260ff1681518110610a2057610a1f612100565b5b6020026020010151908060018154018082558091505060019003906000526020600020016000909190919091505580610a589061212f565b9050610955565b8160056000878152602001908152602001600020600401819055505050505050565b606060056000838152602001908152602001600020600101805480602002602001604051908101604052809291908181526020018280548015610b1957602002820191906000526020600020905b8160009054906101000a900473ffffffffffffffffffffffffffffffffffffffff1673ffffffffffffffffffffffffffffffffffffffff1681526020019060010190808311610acf575b50505050509050919050565b60008060008373ffffffffffffffffffffffffffffffffffffffff1673ffffffffffffffffffffffffffffffffffffffff168152602001908152602001600020549050919050565b606060048054610b7c90611f4c565b80601f0160208091040260200160405190810160405280929190818152602001828054610ba890611f4c565b8015610bf55780601f10610bca57610100808354040283529160200191610bf5565b820191906000526020600020905b815481529060010190602001808311610bd857829003601f168201915b5050505050905090565b60008060016000610c0e610f9c565b73ffffffffffffffffffffffffffffffffffffffff1673ffffffffffffffffffffffffffffffffffffffff16815260200190815260200160002060008573ffffffffffffffffffffffffffffffffffffffff1673ffffffffffffffffffffffffffffffffffffffff16815260200190815260200160002054905082811015610ccb576040517f08c379a0000000000000000000000000000000000000000000000000000000008152600401610cc2906121ca565b60405180910390fd5b610cdf610cd6610f9c565b85858403610fa4565b600191505092915050565b6000610cfe610cf7610f9c565b848461125f565b6001905092915050565b6000600860003373ffffffffffffffffffffffffffffffffffffffff1673ffffffffffffffffffffffffffffffffffffffff16815260200190815260200160002060010160009054906101000a900460ff1660ff16905090565b60006005600083815260200190815260200160002060020160009054906101000a900473ffffffffffffffffffffffffffffffffffffffff169050919050565b606060056000838152602001908152602001600020600301805480602002602001604051908101604052809291908181526020018280548015610e0457602002820191906000526020600020905b815481526020019060010190808311610df0575b50505050509050919050565b610e2c818366038d7ea4c68000610e2791906121ea565b6114de565b8166038d7ea4c68000610e3f91906121ea565b60066000828254610e5091906120aa565b925050819055505050565b600047905090565b6000600160008473ffffffffffffffffffffffffffffffffffffffff1673ffffffffffffffffffffffffffffffffffffffff16815260200190815260200160002060008373ffffffffffffffffffffffffffffffffffffffff1673ffffffffffffffffffffffffffffffffffffffff16815260200190815260200160002054905092915050565b600060056000838152602001908152602001600020600401549050919050565b606060078054610f1990611f4c565b80601f0160208091040260200160405190810160405280929190818152602001828054610f4590611f4c565b8015610f925780601f10610f6757610100808354040283529160200191610f92565b820191906000526020600020905b815481529060010190602001808311610f7557829003601f168201915b5050505050905090565b600033905090565b600073ffffffffffffffffffffffffffffffffffffffff168373ffffffffffffffffffffffffffffffffffffffff1603611013576040517f08c379a000000000000000000000000000000000000000000000000000000000815260040161100a906122b6565b60405180910390fd5b600073ffffffffffffffffffffffffffffffffffffffff168273ffffffffffffffffffffffffffffffffffffffff1603611082576040517f08c379a000000000000000000000000000000000000000000000000000000000815260040161107990612348565b60405180910390fd5b80600160008573ffffffffffffffffffffffffffffffffffffffff1673ffffffffffffffffffffffffffffffffffffffff16815260200190815260200160002060008473ffffffffffffffffffffffffffffffffffffffff1673ffffffffffffffffffffffffffffffffffffffff168152602001908152602001600020819055508173ffffffffffffffffffffffffffffffffffffffff168373ffffffffffffffffffffffffffffffffffffffff167f8c5be1e5ebec7d5bd14f71427d1e84f3dd0314c0f7b2291e5b200ac8c7c3b925836040516111609190611a5f565b60405180910390a3505050565b60005b81518160ff161461125a576111e9828260ff168151811061119457611193612100565b5b6020026020010151600560008681526020019081526020016000206003018360ff16815481106111c7576111c6612100565b5b906000526020600020015466038d7ea4c680006111e491906121ea565b6114de565b806111f39061212f565b9050600560008481526020019081526020016000206003018160ff16815481106112205761121f612100565b5b906000526020600020015466038d7ea4c6800061123d91906121ea565b6006600082825461124e91906120aa565b92505081905550611170565b505050565b600073ffffffffffffffffffffffffffffffffffffffff168373ffffffffffffffffffffffffffffffffffffffff16036112ce576040517f08c379a00000000000000000000000000000000000000000000000000000000081526004016112c5906123da565b60405180910390fd5b600073ffffffffffffffffffffffffffffffffffffffff168273ffffffffffffffffffffffffffffffffffffffff160361133d576040517f08c379a00000000000000000000000000000000000000000000000000000000081526004016113349061246c565b60405180910390fd5b61134883838361163d565b60008060008573ffffffffffffffffffffffffffffffffffffffff1673ffffffffffffffffffffffffffffffffffffffff168152602001908152602001600020549050818110156113ce576040517f08c379a00000000000000000000000000000000000000000000000000000000081526004016113c5906124fe565b60405180910390fd5b8181036000808673ffffffffffffffffffffffffffffffffffffffff1673ffffffffffffffffffffffffffffffffffffffff16815260200190815260200160002081905550816000808573ffffffffffffffffffffffffffffffffffffffff1673ffffffffffffffffffffffffffffffffffffffff168152602001908152602001600020600082825461146191906120aa565b925050819055508273ffffffffffffffffffffffffffffffffffffffff168473ffffffffffffffffffffffffffffffffffffffff167fddf252ad1be2c89b69c2b068fc378daa952ba7f163c4a11628f55a4df523b3ef846040516114c59190611a5f565b60405180910390a36114d8848484611642565b50505050565b600073ffffffffffffffffffffffffffffffffffffffff168273ffffffffffffffffffffffffffffffffffffffff160361154d576040517f08c379a00000000000000000000000000000000000000000000000000000000081526004016115449061256a565b60405180910390fd5b6115596000838361163d565b806002600082825461156b91906120aa565b92505081905550806000808473ffffffffffffffffffffffffffffffffffffffff1673ffffffffffffffffffffffffffffffffffffffff16815260200190815260200160002060008282546115c091906120aa565b925050819055508173ffffffffffffffffffffffffffffffffffffffff16600073ffffffffffffffffffffffffffffffffffffffff167fddf252ad1be2c89b69c2b068fc378daa952ba7f163c4a11628f55a4df523b3ef836040516116259190611a5f565b60405180910390a361163960008383611642565b5050565b505050565b505050565b600081519050919050565b600082825260208201905092915050565b60005b83811015611681578082015181840152602081019050611666565b83811115611690576000848401525b50505050565b6000601f19601f8301169050919050565b60006116b282611647565b6116bc8185611652565b93506116cc818560208601611663565b6116d581611696565b840191505092915050565b600060208201905081810360008301526116fa81846116a7565b905092915050565b6000604051905090565b600080fd5b600080fd5b600060ff82169050919050565b61172c81611716565b811461173757600080fd5b50565b60008135905061174981611723565b92915050565b6000819050919050565b6117628161174f565b811461176d57600080fd5b50565b60008135905061177f81611759565b92915050565b6000806040838503121561179c5761179b61170c565b5b60006117aa8582860161173a565b92505060206117bb85828601611770565b9150509250929050565b600073ffffffffffffffffffffffffffffffffffffffff82169050919050565b60006117f0826117c5565b9050919050565b611800816117e5565b811461180b57600080fd5b50565b60008135905061181d816117f7565b92915050565b6000806040838503121561183a5761183961170c565b5b60006118488582860161180e565b925050602061185985828601611770565b9150509250929050565b60008115159050919050565b61187881611863565b82525050565b6000602082019050611893600083018461186f565b92915050565b600080fd5b7f4e487b7100000000000000000000000000000000000000000000000000000000600052604160045260246000fd5b6118d682611696565b810181811067ffffffffffffffff821117156118f5576118f461189e565b5b80604052505050565b6000611908611702565b905061191482826118cd565b919050565b600067ffffffffffffffff8211156119345761193361189e565b5b602082029050602081019050919050565b600080fd5b600061195d61195884611919565b6118fe565b905080838252602082019050602084028301858111156119805761197f611945565b5b835b818110156119a95780611995888261180e565b845260208401935050602081019050611982565b5050509392505050565b600082601f8301126119c8576119c7611899565b5b81356119d884826020860161194a565b91505092915050565b6000806000606084860312156119fa576119f961170c565b5b6000611a0886828701611770565b9350506020611a198682870161180e565b925050604084013567ffffffffffffffff811115611a3a57611a39611711565b5b611a46868287016119b3565b9150509250925092565b611a598161174f565b82525050565b6000602082019050611a746000830184611a50565b92915050565b600080600060608486031215611a9357611a9261170c565b5b6000611aa18682870161180e565b9350506020611ab28682870161180e565b9250506040611ac386828701611770565b9150509250925092565b611ad681611716565b82525050565b6000602082019050611af16000830184611acd565b92915050565b600067ffffffffffffffff821115611b1257611b1161189e565b5b602082029050602081019050919050565b6000611b36611b3184611af7565b6118fe565b90508083825260208201905060208402830185811115611b5957611b58611945565b5b835b81811015611b825780611b6e8882611770565b845260208401935050602081019050611b5b565b5050509392505050565b600082601f830112611ba157611ba0611899565b5b8135611bb1848260208601611b23565b91505092915050565b60008060008060808587031215611bd457611bd361170c565b5b6000611be287828801611770565b945050602085013567ffffffffffffffff811115611c0357611c02611711565b5b611c0f878288016119b3565b935050604085013567ffffffffffffffff811115611c3057611c2f611711565b5b611c3c87828801611b8c565b9250506060611c4d87828801611770565b91505092959194509250565b600060208284031215611c6f57611c6e61170c565b5b6000611c7d84828501611770565b91505092915050565b600081519050919050565b600082825260208201905092915050565b6000819050602082019050919050565b611cbb816117e5565b82525050565b6000611ccd8383611cb2565b60208301905092915050565b6000602082019050919050565b6000611cf182611c86565b611cfb8185611c91565b9350611d0683611ca2565b8060005b83811015611d37578151611d1e8882611cc1565b9750611d2983611cd9565b925050600181019050611d0a565b5085935050505092915050565b60006020820190508181036000830152611d5e8184611ce6565b905092915050565b600060208284031215611d7c57611d7b61170c565b5b6000611d8a8482850161180e565b91505092915050565b611d9c816117e5565b82525050565b6000602082019050611db76000830184611d93565b92915050565b600081519050919050565b600082825260208201905092915050565b6000819050602082019050919050565b611df28161174f565b82525050565b6000611e048383611de9565b60208301905092915050565b6000602082019050919050565b6000611e2882611dbd565b611e328185611dc8565b9350611e3d83611dd9565b8060005b83811015611e6e578151611e558882611df8565b9750611e6083611e10565b925050600181019050611e41565b5085935050505092915050565b60006020820190508181036000830152611e958184611e1d565b905092915050565b60008060408385031215611eb457611eb361170c565b5b6000611ec285828601611770565b9250506020611ed38582860161180e565b9150509250929050565b60008060408385031215611ef457611ef361170c565b5b6000611f028582860161180e565b9250506020611f138582860161180e565b9150509250929050565b7f4e487b7100000000000000000000000000000000000000000000000000000000600052602260045260246000fd5b60006002820490506001821680611f6457607f821691505b602082108103611f7757611f76611f1d565b5b50919050565b7f2152455645525420313031000000000000000000000000000000000000000000600082015250565b6000611fb3600b83611652565b9150611fbe82611f7d565b602082019050919050565b60006020820190508181036000830152611fe281611fa6565b9050919050565b7f45524332303a207472616e7366657220616d6f756e742065786365656473206160008201527f6c6c6f77616e6365000000000000000000000000000000000000000000000000602082015250565b6000612045602883611652565b915061205082611fe9565b604082019050919050565b6000602082019050818103600083015261207481612038565b9050919050565b7f4e487b7100000000000000000000000000000000000000000000000000000000600052601160045260246000fd5b60006120b58261174f565b91506120c08361174f565b9250827fffffffffffffffffffffffffffffffffffffffffffffffffffffffffffffffff038211156120f5576120f461207b565b5b828201905092915050565b7f4e487b7100000000000000000000000000000000000000000000000000000000600052603260045260246000fd5b600061213a82611716565b915060ff820361214d5761214c61207b565b5b600182019050919050565b7f45524332303a2064656372656173656420616c6c6f77616e63652062656c6f7760008201527f207a65726f000000000000000000000000000000000000000000000000000000602082015250565b60006121b4602583611652565b91506121bf82612158565b604082019050919050565b600060208201905081810360008301526121e3816121a7565b9050919050565b60006121f58261174f565b91506122008361174f565b9250817fffffffffffffffffffffffffffffffffffffffffffffffffffffffffffffffff04831182151516156122395761223861207b565b5b828202905092915050565b7f45524332303a20617070726f76652066726f6d20746865207a65726f2061646460008201527f7265737300000000000000000000000000000000000000000000000000000000602082015250565b60006122a0602483611652565b91506122ab82612244565b604082019050919050565b600060208201905081810360008301526122cf81612293565b9050919050565b7f45524332303a20617070726f766520746f20746865207a65726f20616464726560008201527f7373000000000000000000000000000000000000000000000000000000000000602082015250565b6000612332602283611652565b915061233d826122d6565b604082019050919050565b6000602082019050818103600083015261236181612325565b9050919050565b7f45524332303a207472616e736665722066726f6d20746865207a65726f20616460008201527f6472657373000000000000000000000000000000000000000000000000000000602082015250565b60006123c4602583611652565b91506123cf82612368565b604082019050919050565b600060208201905081810360008301526123f3816123b7565b9050919050565b7f45524332303a207472616e7366657220746f20746865207a65726f206164647260008201527f6573730000000000000000000000000000000000000000000000000000000000602082015250565b6000612456602383611652565b9150612461826123fa565b604082019050919050565b6000602082019050818103600083015261248581612449565b9050919050565b7f45524332303a207472616e7366657220616d6f756e742065786365656473206260008201527f616c616e63650000000000000000000000000000000000000000000000000000602082015250565b60006124e8602683611652565b91506124f38261248c565b604082019050919050565b60006020820190508181036000830152612517816124db565b9050919050565b7f45524332303a206d696e7420746f20746865207a65726f206164647265737300600082015250565b6000612554601f83611652565b915061255f8261251e565b602082019050919050565b6000602082019050818103600083015261258381612547565b905091905056fea2646970667358221220e60a1abeb7f9d59c479635354e3d4c51aa383224f2676a3df1b74adb6fd3f44f64736f6c634300080d0033",
  "immutableReferences": {},
  "source": "// SPDX-License-Identifier: MIT\npragma solidity ^0.8.3;\n\nimport './SeverStore.sol';\n\ncontract CoinDispencer is SeverStore{\n    struct userCharge{\n        uint price;\n        uint8 point;\n    }\n    string connecTecs = \"farewell\";\n    \n    mapping(address => userCharge) purchase;\n\n    modifier fee(uint _fee) {\n        if (msg.value != _fee) {\n            revert(\"!REVERT 101\");\n        } else {\n            _;\n        }\n    }\n    function changePoint(uint8 _requirePoint, uint _calcedPirec) external\n    payable\n    fee(_calcedPirec){\n        purchase[msg.sender].point = _requirePoint;\n        purchase[msg.sender].price = _calcedPirec;\n        //trx(purchase[msg.sender].price);\n    }\n    function tempView() public view returns(uint){\n        return address(this).balance;\n    }\n    function userPoint() public view returns(uint){\n        return purchase[msg.sender].point;\n    }\n    function connection() public view returns(string memory){\n        return connecTecs;\n    }\n}",
  "sourcePath": "D:\\workspace\\BBwork_block\\pogre\\trufflebox\\contracts\\CoinDispencer.sol",
  "compiler": {
    "name": "solc",
    "version": "0.8.13+commit.abaa5c0e.Emscripten.clang"
  },
  "schemaVersion": "3.4.2",
  "updatedAt": "2022-03-18T03:51:35.475Z",
  "networkType": "ethereum",
  "devdoc": {
    "kind": "dev",
    "methods": {
      "allowance(address,address)": {
        "details": "See {IERC20-allowance}."
      },
      "approve(address,uint256)": {
        "details": "See {IERC20-approve}. Requirements: - `spender` cannot be the zero address."
      },
      "balanceOf(address)": {
        "details": "See {IERC20-balanceOf}."
      },
      "decimals()": {
        "details": "Returns the number of decimals used to get its user representation. For example, if `decimals` equals `2`, a balance of `505` tokens should be displayed to a user as `5.05` (`505 / 10 ** 2`). Tokens usually opt for a value of 18, imitating the relationship between Ether and Wei. This is the value {ERC20} uses, unless this function is overridden; NOTE: This information is only used for _display_ purposes: it in no way affects any of the arithmetic of the contract, including {IERC20-balanceOf} and {IERC20-transfer}."
      },
      "decreaseAllowance(address,uint256)": {
        "details": "Atomically decreases the allowance granted to `spender` by the caller. This is an alternative to {approve} that can be used as a mitigation for problems described in {IERC20-approve}. Emits an {Approval} event indicating the updated allowance. Requirements: - `spender` cannot be the zero address. - `spender` must have allowance for the caller of at least `subtractedValue`."
      },
      "increaseAllowance(address,uint256)": {
        "details": "Atomically increases the allowance granted to `spender` by the caller. This is an alternative to {approve} that can be used as a mitigation for problems described in {IERC20-approve}. Emits an {Approval} event indicating the updated allowance. Requirements: - `spender` cannot be the zero address."
      },
      "name()": {
        "details": "Returns the name of the token."
      },
      "symbol()": {
        "details": "Returns the symbol of the token, usually a shorter version of the name."
      },
      "totalSupply()": {
        "details": "See {IERC20-totalSupply}."
      },
      "transfer(address,uint256)": {
        "details": "See {IERC20-transfer}. Requirements: - `recipient` cannot be the zero address. - the caller must have a balance of at least `amount`."
      },
      "transferFrom(address,address,uint256)": {
        "details": "See {IERC20-transferFrom}. Emits an {Approval} event indicating the updated allowance. This is not required by the EIP. See the note at the beginning of {ERC20}. Requirements: - `sender` and `recipient` cannot be the zero address. - `sender` must have a balance of at least `amount`. - the caller must have allowance for ``sender``'s tokens of at least `amount`."
      }
    },
    "version": 1
  },
  "userdoc": {
    "kind": "user",
    "methods": {},
    "version": 1
  }
}