{
  "contractName": "CoinDispencer",
  "abi": [
    {
      "anonymous": false,
      "inputs": [
        {
          "indexed": true,
          "internalType": "address",
          "name": "owner",
          "type": "address"
        },
        {
          "indexed": true,
          "internalType": "address",
          "name": "spender",
          "type": "address"
        },
        {
          "indexed": false,
          "internalType": "uint256",
          "name": "value",
          "type": "uint256"
        }
      ],
      "name": "Approval",
      "type": "event"
    },
    {
      "anonymous": false,
      "inputs": [
        {
          "indexed": true,
          "internalType": "address",
          "name": "from",
          "type": "address"
        },
        {
          "indexed": true,
          "internalType": "address",
          "name": "to",
          "type": "address"
        },
        {
          "indexed": false,
          "internalType": "uint256",
          "name": "value",
          "type": "uint256"
        }
      ],
      "name": "Transfer",
      "type": "event"
    },
    {
      "inputs": [
        {
          "internalType": "address",
          "name": "owner",
          "type": "address"
        },
        {
          "internalType": "address",
          "name": "spender",
          "type": "address"
        }
      ],
      "name": "allowance",
      "outputs": [
        {
          "internalType": "uint256",
          "name": "",
          "type": "uint256"
        }
      ],
      "stateMutability": "view",
      "type": "function",
      "constant": true
    },
    {
      "inputs": [
        {
          "internalType": "address",
          "name": "spender",
          "type": "address"
        },
        {
          "internalType": "uint256",
          "name": "amount",
          "type": "uint256"
        }
      ],
      "name": "approve",
      "outputs": [
        {
          "internalType": "bool",
          "name": "",
          "type": "bool"
        }
      ],
      "stateMutability": "nonpayable",
      "type": "function"
    },
    {
      "inputs": [
        {
          "internalType": "address",
          "name": "account",
          "type": "address"
        }
      ],
      "name": "balanceOf",
      "outputs": [
        {
          "internalType": "uint256",
          "name": "",
          "type": "uint256"
        }
      ],
      "stateMutability": "view",
      "type": "function",
      "constant": true
    },
    {
      "inputs": [],
      "name": "decimals",
      "outputs": [
        {
          "internalType": "uint8",
          "name": "",
          "type": "uint8"
        }
      ],
      "stateMutability": "view",
      "type": "function",
      "constant": true
    },
    {
      "inputs": [
        {
          "internalType": "address",
          "name": "spender",
          "type": "address"
        },
        {
          "internalType": "uint256",
          "name": "subtractedValue",
          "type": "uint256"
        }
      ],
      "name": "decreaseAllowance",
      "outputs": [
        {
          "internalType": "bool",
          "name": "",
          "type": "bool"
        }
      ],
      "stateMutability": "nonpayable",
      "type": "function"
    },
    {
      "inputs": [
        {
          "internalType": "uint256",
          "name": "_team",
          "type": "uint256"
        }
      ],
      "name": "getOwner",
      "outputs": [
        {
          "internalType": "address",
          "name": "",
          "type": "address"
        }
      ],
      "stateMutability": "view",
      "type": "function",
      "constant": true
    },
    {
      "inputs": [
        {
          "internalType": "uint256",
          "name": "_team",
          "type": "uint256"
        }
      ],
      "name": "getPrice",
      "outputs": [
        {
          "internalType": "uint256",
          "name": "",
          "type": "uint256"
        }
      ],
      "stateMutability": "view",
      "type": "function",
      "constant": true
    },
    {
      "inputs": [
        {
          "internalType": "uint256",
          "name": "_team",
          "type": "uint256"
        }
      ],
      "name": "getPtcp",
      "outputs": [
        {
          "internalType": "address[]",
          "name": "",
          "type": "address[]"
        }
      ],
      "stateMutability": "view",
      "type": "function",
      "constant": true
    },
    {
      "inputs": [
        {
          "internalType": "uint256",
          "name": "_team",
          "type": "uint256"
        }
      ],
      "name": "getStake",
      "outputs": [
        {
          "internalType": "uint256[]",
          "name": "",
          "type": "uint256[]"
        }
      ],
      "stateMutability": "view",
      "type": "function",
      "constant": true
    },
    {
      "inputs": [
        {
          "internalType": "address",
          "name": "spender",
          "type": "address"
        },
        {
          "internalType": "uint256",
          "name": "addedValue",
          "type": "uint256"
        }
      ],
      "name": "increaseAllowance",
      "outputs": [
        {
          "internalType": "bool",
          "name": "",
          "type": "bool"
        }
      ],
      "stateMutability": "nonpayable",
      "type": "function"
    },
    {
      "inputs": [],
      "name": "name",
      "outputs": [
        {
          "internalType": "string",
          "name": "",
          "type": "string"
        }
      ],
      "stateMutability": "view",
      "type": "function",
      "constant": true
    },
    {
      "inputs": [
        {
          "internalType": "uint256",
          "name": "_team",
          "type": "uint256"
        },
        {
          "internalType": "address",
          "name": "_buyer",
          "type": "address"
        },
        {
          "internalType": "address[]",
          "name": "_ptcp",
          "type": "address[]"
        }
      ],
      "name": "purchase",
      "outputs": [],
      "stateMutability": "nonpayable",
      "type": "function"
    },
    {
      "inputs": [
        {
          "internalType": "uint256",
          "name": "_team",
          "type": "uint256"
        },
        {
          "internalType": "address[]",
          "name": "_ptcp",
          "type": "address[]"
        },
        {
          "internalType": "uint256[]",
          "name": "_stake",
          "type": "uint256[]"
        },
        {
          "internalType": "uint256",
          "name": "_price",
          "type": "uint256"
        }
      ],
      "name": "putBlock",
      "outputs": [],
      "stateMutability": "nonpayable",
      "type": "function"
    },
    {
      "inputs": [],
      "name": "symbol",
      "outputs": [
        {
          "internalType": "string",
          "name": "",
          "type": "string"
        }
      ],
      "stateMutability": "view",
      "type": "function",
      "constant": true
    },
    {
      "inputs": [],
      "name": "totalSupply",
      "outputs": [
        {
          "internalType": "uint256",
          "name": "",
          "type": "uint256"
        }
      ],
      "stateMutability": "view",
      "type": "function",
      "constant": true
    },
    {
      "inputs": [
        {
          "internalType": "address",
          "name": "recipient",
          "type": "address"
        },
        {
          "internalType": "uint256",
          "name": "amount",
          "type": "uint256"
        }
      ],
      "name": "transfer",
      "outputs": [
        {
          "internalType": "bool",
          "name": "",
          "type": "bool"
        }
      ],
      "stateMutability": "nonpayable",
      "type": "function"
    },
    {
      "inputs": [
        {
          "internalType": "address",
          "name": "sender",
          "type": "address"
        },
        {
          "internalType": "address",
          "name": "recipient",
          "type": "address"
        },
        {
          "internalType": "uint256",
          "name": "amount",
          "type": "uint256"
        }
      ],
      "name": "transferFrom",
      "outputs": [
        {
          "internalType": "bool",
          "name": "",
          "type": "bool"
        }
      ],
      "stateMutability": "nonpayable",
      "type": "function"
    },
    {
      "inputs": [
        {
          "internalType": "uint8",
          "name": "_requirePoint",
          "type": "uint8"
        },
        {
          "internalType": "uint256",
          "name": "_calcedPirec",
          "type": "uint256"
        }
      ],
      "name": "changePoint",
      "outputs": [],
      "stateMutability": "payable",
      "type": "function",
      "payable": true
    },
    {
      "inputs": [],
      "name": "tempView",
      "outputs": [
        {
          "internalType": "uint256",
          "name": "",
          "type": "uint256"
        }
      ],
      "stateMutability": "view",
      "type": "function",
      "constant": true
    },
    {
      "inputs": [],
      "name": "userPoint",
      "outputs": [
        {
          "internalType": "uint256",
          "name": "",
          "type": "uint256"
        }
      ],
      "stateMutability": "view",
      "type": "function",
      "constant": true
    },
    {
      "inputs": [],
      "name": "connection",
      "outputs": [
        {
          "internalType": "string",
          "name": "",
          "type": "string"
        }
      ],
      "stateMutability": "view",
      "type": "function",
      "constant": true
    }
  ],
  "bytecode": "0x608060405260006006556040518060400160405280600881526020017f6661726577656c6c00000000000000000000000000000000000000000000000081525060079080519060200190620000569291906200010b565b503480156200006457600080fd5b506040518060400160405280600681526020017f54687265616400000000000000000000000000000000000000000000000000008152506040518060400160405280600481526020017f54485265000000000000000000000000000000000000000000000000000000008152508160039080519060200190620000e99291906200010b565b508060049080519060200190620001029291906200010b565b50505062000220565b8280546200011990620001ea565b90600052602060002090601f0160209004810192826200013d576000855562000189565b82601f106200015857805160ff191683800117855562000189565b8280016001018555821562000189579182015b82811115620001885782518255916020019190600101906200016b565b5b5090506200019891906200019c565b5090565b5b80821115620001b75760008160009055506001016200019d565b5090565b7f4e487b7100000000000000000000000000000000000000000000000000000000600052602260045260246000fd5b600060028204905060018216806200020357607f821691505b602082108114156200021a5762000219620001bb565b5b50919050565b61250780620002306000396000f3fe60806040526004361061012a5760003560e01c806370a08231116100ab578063c41a360a1161006f578063c41a360a1461041f578063ce325bf81461045c578063d34b7a2114610499578063dd62ed3e146104c4578063e757223014610501578063fd19016c1461053e5761012a565b806370a082311461031257806395d89b411461034f578063a457c2d71461037a578063a9059cbb146103b7578063b364fa00146103f45761012a565b806323b872dd116100f257806323b872dd14610207578063313ce56714610244578063395093511461026f57806344133b3c146102ac57806350ab647e146102d55761012a565b806306fdde031461012f578063077b7c6d1461015a578063095ea7b314610176578063115e85f2146101b357806318160ddd146101dc575b600080fd5b34801561013b57600080fd5b50610144610569565b604051610151919061161c565b60405180910390f35b610174600480360381019061016f91906116c1565b6105fb565b005b34801561018257600080fd5b5061019d6004803603810190610198919061175f565b6106e5565b6040516101aa91906117ba565b60405180910390f35b3480156101bf57600080fd5b506101da60048036038101906101d5919061191d565b610703565b005b3480156101e857600080fd5b506101f1610767565b6040516101fe919061199b565b60405180910390f35b34801561021357600080fd5b5061022e600480360381019061022991906119b6565b610771565b60405161023b91906117ba565b60405180910390f35b34801561025057600080fd5b50610259610869565b6040516102669190611a18565b60405180910390f35b34801561027b57600080fd5b506102966004803603810190610291919061175f565b610872565b6040516102a391906117ba565b60405180910390f35b3480156102b857600080fd5b506102d360048036038101906102ce9190611af6565b61091e565b005b3480156102e157600080fd5b506102fc60048036038101906102f79190611b95565b610a4d565b6040516103099190611c80565b60405180910390f35b34801561031e57600080fd5b5061033960048036038101906103349190611ca2565b610af1565b604051610346919061199b565b60405180910390f35b34801561035b57600080fd5b50610364610b39565b604051610371919061161c565b60405180910390f35b34801561038657600080fd5b506103a1600480360381019061039c919061175f565b610bcb565b6040516103ae91906117ba565b60405180910390f35b3480156103c357600080fd5b506103de60048036038101906103d9919061175f565b610cb6565b6040516103eb91906117ba565b60405180910390f35b34801561040057600080fd5b50610409610cd4565b604051610416919061199b565b60405180910390f35b34801561042b57600080fd5b5061044660048036038101906104419190611b95565b610d2e565b6040516104539190611cde565b60405180910390f35b34801561046857600080fd5b50610483600480360381019061047e9190611b95565b610d6e565b6040516104909190611db7565b60405180910390f35b3480156104a557600080fd5b506104ae610ddc565b6040516104bb919061199b565b60405180910390f35b3480156104d057600080fd5b506104eb60048036038101906104e69190611dd9565b610de4565b6040516104f8919061199b565b60405180910390f35b34801561050d57600080fd5b5061052860048036038101906105239190611b95565b610e6b565b604051610535919061199b565b60405180910390f35b34801561054a57600080fd5b50610553610e8b565b604051610560919061161c565b60405180910390f35b60606003805461057890611e48565b80601f01602080910402602001604051908101604052809291908181526020018280546105a490611e48565b80156105f15780601f106105c6576101008083540402835291602001916105f1565b820191906000526020600020905b8154815290600101906020018083116105d457829003601f168201915b5050505050905090565b8080341461063e576040517f08c379a000000000000000000000000000000000000000000000000000000000815260040161063590611ec6565b60405180910390fd5b82600860003373ffffffffffffffffffffffffffffffffffffffff1673ffffffffffffffffffffffffffffffffffffffff16815260200190815260200160002060010160006101000a81548160ff021916908360ff16021790555081600860003373ffffffffffffffffffffffffffffffffffffffff1673ffffffffffffffffffffffffffffffffffffffff16815260200190815260200160002060000181905550505050565b60006106f96106f2610f1d565b8484610f25565b6001905092915050565b816005600085815260200190815260200160002060020160006101000a81548173ffffffffffffffffffffffffffffffffffffffff021916908373ffffffffffffffffffffffffffffffffffffffff16021790555061076283826110f0565b505050565b6000600254905090565b600061077e848484611198565b6000600160008673ffffffffffffffffffffffffffffffffffffffff1673ffffffffffffffffffffffffffffffffffffffff16815260200190815260200160002060006107c9610f1d565b73ffffffffffffffffffffffffffffffffffffffff1673ffffffffffffffffffffffffffffffffffffffff16815260200190815260200160002054905082811015610849576040517f08c379a000000000000000000000000000000000000000000000000000000000815260040161084090611f58565b60405180910390fd5b61085d85610855610f1d565b858403610f25565b60019150509392505050565b60006012905090565b600061091461087f610f1d565b84846001600061088d610f1d565b73ffffffffffffffffffffffffffffffffffffffff1673ffffffffffffffffffffffffffffffffffffffff16815260200190815260200160002060008873ffffffffffffffffffffffffffffffffffffffff1673ffffffffffffffffffffffffffffffffffffffff1681526020019081526020016000205461090f9190611fa7565b610f25565b6001905092915050565b60005b83518160ff1614610a2b5760056000868152602001908152602001600020600101848260ff168151811061095857610957611ffd565b5b60200260200101519080600181540180825580915050600190039060005260206000200160009091909190916101000a81548173ffffffffffffffffffffffffffffffffffffffff021916908373ffffffffffffffffffffffffffffffffffffffff16021790555060056000868152602001908152602001600020600301838260ff16815181106109ec576109eb611ffd565b5b6020026020010151908060018154018082558091505060019003906000526020600020016000909190919091505580610a249061202c565b9050610921565b8160056000878152602001908152602001600020600401819055505050505050565b606060056000838152602001908152602001600020600101805480602002602001604051908101604052809291908181526020018280548015610ae557602002820191906000526020600020905b8160009054906101000a900473ffffffffffffffffffffffffffffffffffffffff1673ffffffffffffffffffffffffffffffffffffffff1681526020019060010190808311610a9b575b50505050509050919050565b60008060008373ffffffffffffffffffffffffffffffffffffffff1673ffffffffffffffffffffffffffffffffffffffff168152602001908152602001600020549050919050565b606060048054610b4890611e48565b80601f0160208091040260200160405190810160405280929190818152602001828054610b7490611e48565b8015610bc15780601f10610b9657610100808354040283529160200191610bc1565b820191906000526020600020905b815481529060010190602001808311610ba457829003601f168201915b5050505050905090565b60008060016000610bda610f1d565b73ffffffffffffffffffffffffffffffffffffffff1673ffffffffffffffffffffffffffffffffffffffff16815260200190815260200160002060008573ffffffffffffffffffffffffffffffffffffffff1673ffffffffffffffffffffffffffffffffffffffff16815260200190815260200160002054905082811015610c97576040517f08c379a0000000000000000000000000000000000000000000000000000000008152600401610c8e906120c8565b60405180910390fd5b610cab610ca2610f1d565b85858403610f25565b600191505092915050565b6000610cca610cc3610f1d565b8484611198565b6001905092915050565b6000600860003373ffffffffffffffffffffffffffffffffffffffff1673ffffffffffffffffffffffffffffffffffffffff16815260200190815260200160002060010160009054906101000a900460ff1660ff16905090565b60006005600083815260200190815260200160002060020160009054906101000a900473ffffffffffffffffffffffffffffffffffffffff169050919050565b606060056000838152602001908152602001600020600301805480602002602001604051908101604052809291908181526020018280548015610dd057602002820191906000526020600020905b815481526020019060010190808311610dbc575b50505050509050919050565b600047905090565b6000600160008473ffffffffffffffffffffffffffffffffffffffff1673ffffffffffffffffffffffffffffffffffffffff16815260200190815260200160002060008373ffffffffffffffffffffffffffffffffffffffff1673ffffffffffffffffffffffffffffffffffffffff16815260200190815260200160002054905092915050565b600060056000838152602001908152602001600020600401549050919050565b606060078054610e9a90611e48565b80601f0160208091040260200160405190810160405280929190818152602001828054610ec690611e48565b8015610f135780601f10610ee857610100808354040283529160200191610f13565b820191906000526020600020905b815481529060010190602001808311610ef657829003601f168201915b5050505050905090565b600033905090565b600073ffffffffffffffffffffffffffffffffffffffff168373ffffffffffffffffffffffffffffffffffffffff161415610f95576040517f08c379a0000000000000000000000000000000000000000000000000000000008152600401610f8c9061215a565b60405180910390fd5b600073ffffffffffffffffffffffffffffffffffffffff168273ffffffffffffffffffffffffffffffffffffffff161415611005576040517f08c379a0000000000000000000000000000000000000000000000000000000008152600401610ffc906121ec565b60405180910390fd5b80600160008573ffffffffffffffffffffffffffffffffffffffff1673ffffffffffffffffffffffffffffffffffffffff16815260200190815260200160002060008473ffffffffffffffffffffffffffffffffffffffff1673ffffffffffffffffffffffffffffffffffffffff168152602001908152602001600020819055508173ffffffffffffffffffffffffffffffffffffffff168373ffffffffffffffffffffffffffffffffffffffff167f8c5be1e5ebec7d5bd14f71427d1e84f3dd0314c0f7b2291e5b200ac8c7c3b925836040516110e3919061199b565b60405180910390a3505050565b60005b81518160ff16146111935761116c828260ff168151811061111757611116611ffd565b5b6020026020010151600560008681526020019081526020016000206003018360ff168154811061114a57611149611ffd565b5b906000526020600020015466038d7ea4c68000611167919061220c565b611419565b806111769061202c565b905060066000815461118790612266565b919050819055506110f3565b505050565b600073ffffffffffffffffffffffffffffffffffffffff168373ffffffffffffffffffffffffffffffffffffffff161415611208576040517f08c379a00000000000000000000000000000000000000000000000000000000081526004016111ff90612321565b60405180910390fd5b600073ffffffffffffffffffffffffffffffffffffffff168273ffffffffffffffffffffffffffffffffffffffff161415611278576040517f08c379a000000000000000000000000000000000000000000000000000000000815260040161126f906123b3565b60405180910390fd5b611283838383611579565b60008060008573ffffffffffffffffffffffffffffffffffffffff1673ffffffffffffffffffffffffffffffffffffffff16815260200190815260200160002054905081811015611309576040517f08c379a000000000000000000000000000000000000000000000000000000000815260040161130090612445565b60405180910390fd5b8181036000808673ffffffffffffffffffffffffffffffffffffffff1673ffffffffffffffffffffffffffffffffffffffff16815260200190815260200160002081905550816000808573ffffffffffffffffffffffffffffffffffffffff1673ffffffffffffffffffffffffffffffffffffffff168152602001908152602001600020600082825461139c9190611fa7565b925050819055508273ffffffffffffffffffffffffffffffffffffffff168473ffffffffffffffffffffffffffffffffffffffff167fddf252ad1be2c89b69c2b068fc378daa952ba7f163c4a11628f55a4df523b3ef84604051611400919061199b565b60405180910390a361141384848461157e565b50505050565b600073ffffffffffffffffffffffffffffffffffffffff168273ffffffffffffffffffffffffffffffffffffffff161415611489576040517f08c379a0000000000000000000000000000000000000000000000000000000008152600401611480906124b1565b60405180910390fd5b61149560008383611579565b80600260008282546114a79190611fa7565b92505081905550806000808473ffffffffffffffffffffffffffffffffffffffff1673ffffffffffffffffffffffffffffffffffffffff16815260200190815260200160002060008282546114fc9190611fa7565b925050819055508173ffffffffffffffffffffffffffffffffffffffff16600073ffffffffffffffffffffffffffffffffffffffff167fddf252ad1be2c89b69c2b068fc378daa952ba7f163c4a11628f55a4df523b3ef83604051611561919061199b565b60405180910390a36115756000838361157e565b5050565b505050565b505050565b600081519050919050565b600082825260208201905092915050565b60005b838110156115bd5780820151818401526020810190506115a2565b838111156115cc576000848401525b50505050565b6000601f19601f8301169050919050565b60006115ee82611583565b6115f8818561158e565b935061160881856020860161159f565b611611816115d2565b840191505092915050565b6000602082019050818103600083015261163681846115e3565b905092915050565b6000604051905090565b600080fd5b600080fd5b600060ff82169050919050565b61166881611652565b811461167357600080fd5b50565b6000813590506116858161165f565b92915050565b6000819050919050565b61169e8161168b565b81146116a957600080fd5b50565b6000813590506116bb81611695565b92915050565b600080604083850312156116d8576116d7611648565b5b60006116e685828601611676565b92505060206116f7858286016116ac565b9150509250929050565b600073ffffffffffffffffffffffffffffffffffffffff82169050919050565b600061172c82611701565b9050919050565b61173c81611721565b811461174757600080fd5b50565b60008135905061175981611733565b92915050565b6000806040838503121561177657611775611648565b5b60006117848582860161174a565b9250506020611795858286016116ac565b9150509250929050565b60008115159050919050565b6117b48161179f565b82525050565b60006020820190506117cf60008301846117ab565b92915050565b600080fd5b7f4e487b7100000000000000000000000000000000000000000000000000000000600052604160045260246000fd5b611812826115d2565b810181811067ffffffffffffffff82111715611831576118306117da565b5b80604052505050565b600061184461163e565b90506118508282611809565b919050565b600067ffffffffffffffff8211156118705761186f6117da565b5b602082029050602081019050919050565b600080fd5b600061189961189484611855565b61183a565b905080838252602082019050602084028301858111156118bc576118bb611881565b5b835b818110156118e557806118d1888261174a565b8452602084019350506020810190506118be565b5050509392505050565b600082601f830112611904576119036117d5565b5b8135611914848260208601611886565b91505092915050565b60008060006060848603121561193657611935611648565b5b6000611944868287016116ac565b93505060206119558682870161174a565b925050604084013567ffffffffffffffff8111156119765761197561164d565b5b611982868287016118ef565b9150509250925092565b6119958161168b565b82525050565b60006020820190506119b0600083018461198c565b92915050565b6000806000606084860312156119cf576119ce611648565b5b60006119dd8682870161174a565b93505060206119ee8682870161174a565b92505060406119ff868287016116ac565b9150509250925092565b611a1281611652565b82525050565b6000602082019050611a2d6000830184611a09565b92915050565b600067ffffffffffffffff821115611a4e57611a4d6117da565b5b602082029050602081019050919050565b6000611a72611a6d84611a33565b61183a565b90508083825260208201905060208402830185811115611a9557611a94611881565b5b835b81811015611abe5780611aaa88826116ac565b845260208401935050602081019050611a97565b5050509392505050565b600082601f830112611add57611adc6117d5565b5b8135611aed848260208601611a5f565b91505092915050565b60008060008060808587031215611b1057611b0f611648565b5b6000611b1e878288016116ac565b945050602085013567ffffffffffffffff811115611b3f57611b3e61164d565b5b611b4b878288016118ef565b935050604085013567ffffffffffffffff811115611b6c57611b6b61164d565b5b611b7887828801611ac8565b9250506060611b89878288016116ac565b91505092959194509250565b600060208284031215611bab57611baa611648565b5b6000611bb9848285016116ac565b91505092915050565b600081519050919050565b600082825260208201905092915050565b6000819050602082019050919050565b611bf781611721565b82525050565b6000611c098383611bee565b60208301905092915050565b6000602082019050919050565b6000611c2d82611bc2565b611c378185611bcd565b9350611c4283611bde565b8060005b83811015611c73578151611c5a8882611bfd565b9750611c6583611c15565b925050600181019050611c46565b5085935050505092915050565b60006020820190508181036000830152611c9a8184611c22565b905092915050565b600060208284031215611cb857611cb7611648565b5b6000611cc68482850161174a565b91505092915050565b611cd881611721565b82525050565b6000602082019050611cf36000830184611ccf565b92915050565b600081519050919050565b600082825260208201905092915050565b6000819050602082019050919050565b611d2e8161168b565b82525050565b6000611d408383611d25565b60208301905092915050565b6000602082019050919050565b6000611d6482611cf9565b611d6e8185611d04565b9350611d7983611d15565b8060005b83811015611daa578151611d918882611d34565b9750611d9c83611d4c565b925050600181019050611d7d565b5085935050505092915050565b60006020820190508181036000830152611dd18184611d59565b905092915050565b60008060408385031215611df057611def611648565b5b6000611dfe8582860161174a565b9250506020611e0f8582860161174a565b9150509250929050565b7f4e487b7100000000000000000000000000000000000000000000000000000000600052602260045260246000fd5b60006002820490506001821680611e6057607f821691505b60208210811415611e7457611e73611e19565b5b50919050565b7f2152455645525420313031000000000000000000000000000000000000000000600082015250565b6000611eb0600b8361158e565b9150611ebb82611e7a565b602082019050919050565b60006020820190508181036000830152611edf81611ea3565b9050919050565b7f45524332303a207472616e7366657220616d6f756e742065786365656473206160008201527f6c6c6f77616e6365000000000000000000000000000000000000000000000000602082015250565b6000611f4260288361158e565b9150611f4d82611ee6565b604082019050919050565b60006020820190508181036000830152611f7181611f35565b9050919050565b7f4e487b7100000000000000000000000000000000000000000000000000000000600052601160045260246000fd5b6000611fb28261168b565b9150611fbd8361168b565b9250827fffffffffffffffffffffffffffffffffffffffffffffffffffffffffffffffff03821115611ff257611ff1611f78565b5b828201905092915050565b7f4e487b7100000000000000000000000000000000000000000000000000000000600052603260045260246000fd5b600061203782611652565b915060ff82141561204b5761204a611f78565b5b600182019050919050565b7f45524332303a2064656372656173656420616c6c6f77616e63652062656c6f7760008201527f207a65726f000000000000000000000000000000000000000000000000000000602082015250565b60006120b260258361158e565b91506120bd82612056565b604082019050919050565b600060208201905081810360008301526120e1816120a5565b9050919050565b7f45524332303a20617070726f76652066726f6d20746865207a65726f2061646460008201527f7265737300000000000000000000000000000000000000000000000000000000602082015250565b600061214460248361158e565b915061214f826120e8565b604082019050919050565b6000602082019050818103600083015261217381612137565b9050919050565b7f45524332303a20617070726f766520746f20746865207a65726f20616464726560008201527f7373000000000000000000000000000000000000000000000000000000000000602082015250565b60006121d660228361158e565b91506121e18261217a565b604082019050919050565b60006020820190508181036000830152612205816121c9565b9050919050565b60006122178261168b565b91506122228361168b565b9250817fffffffffffffffffffffffffffffffffffffffffffffffffffffffffffffffff048311821515161561225b5761225a611f78565b5b828202905092915050565b60006122718261168b565b91507fffffffffffffffffffffffffffffffffffffffffffffffffffffffffffffffff8214156122a4576122a3611f78565b5b600182019050919050565b7f45524332303a207472616e736665722066726f6d20746865207a65726f20616460008201527f6472657373000000000000000000000000000000000000000000000000000000602082015250565b600061230b60258361158e565b9150612316826122af565b604082019050919050565b6000602082019050818103600083015261233a816122fe565b9050919050565b7f45524332303a207472616e7366657220746f20746865207a65726f206164647260008201527f6573730000000000000000000000000000000000000000000000000000000000602082015250565b600061239d60238361158e565b91506123a882612341565b604082019050919050565b600060208201905081810360008301526123cc81612390565b9050919050565b7f45524332303a207472616e7366657220616d6f756e742065786365656473206260008201527f616c616e63650000000000000000000000000000000000000000000000000000602082015250565b600061242f60268361158e565b915061243a826123d3565b604082019050919050565b6000602082019050818103600083015261245e81612422565b9050919050565b7f45524332303a206d696e7420746f20746865207a65726f206164647265737300600082015250565b600061249b601f8361158e565b91506124a682612465565b602082019050919050565b600060208201905081810360008301526124ca8161248e565b905091905056fea2646970667358221220d753c96b048c11fd798216cb8942f4901522d63d9bff5600b883536a7c15683664736f6c634300080c0033",
  "immutableReferences": {},
  "source": "// SPDX-License-Identifier: MIT\npragma solidity ^0.8.3;\n\nimport './SeverStore.sol';\n\ncontract CoinDispencer is SeverStore{\n    struct userCharge{\n        uint price;\n        uint8 point;\n    }\n    string connecTecs = \"farewell\";\n    \n    mapping(address => userCharge) purchase;\n\n    modifier fee(uint _fee) {\n        if (msg.value != _fee) {\n            revert(\"!REVERT 101\");\n        } else {\n            _;\n        }\n    }\n    function changePoint(uint8 _requirePoint, uint _calcedPirec) external\n    payable\n    fee(_calcedPirec){\n        purchase[msg.sender].point = _requirePoint;\n        purchase[msg.sender].price = _calcedPirec;\n        //trx(purchase[msg.sender].price);\n    }\n    function tempView() public view returns(uint){\n        return address(this).balance;\n    }\n    function userPoint() public view returns(uint){\n        return purchase[msg.sender].point;\n    }\n    function connection() public view returns(string memory){\n        return connecTecs;\n    }\n}",
  "sourcePath": "D:\\workspace\\BBwork_block\\pogre\\trufflebox\\contracts\\CoinDispencer.sol",
  "compiler": {
    "name": "solc",
    "version": "0.8.12+commit.f00d7308.Emscripten.clang"
  },
  "schemaVersion": "3.4.2",
  "updatedAt": "2022-03-02T03:15:53.806Z",
  "networkType": "ethereum",
  "devdoc": {
    "kind": "dev",
    "methods": {
      "allowance(address,address)": {
        "details": "See {IERC20-allowance}."
      },
      "approve(address,uint256)": {
        "details": "See {IERC20-approve}. Requirements: - `spender` cannot be the zero address."
      },
      "balanceOf(address)": {
        "details": "See {IERC20-balanceOf}."
      },
      "decimals()": {
        "details": "Returns the number of decimals used to get its user representation. For example, if `decimals` equals `2`, a balance of `505` tokens should be displayed to a user as `5.05` (`505 / 10 ** 2`). Tokens usually opt for a value of 18, imitating the relationship between Ether and Wei. This is the value {ERC20} uses, unless this function is overridden; NOTE: This information is only used for _display_ purposes: it in no way affects any of the arithmetic of the contract, including {IERC20-balanceOf} and {IERC20-transfer}."
      },
      "decreaseAllowance(address,uint256)": {
        "details": "Atomically decreases the allowance granted to `spender` by the caller. This is an alternative to {approve} that can be used as a mitigation for problems described in {IERC20-approve}. Emits an {Approval} event indicating the updated allowance. Requirements: - `spender` cannot be the zero address. - `spender` must have allowance for the caller of at least `subtractedValue`."
      },
      "increaseAllowance(address,uint256)": {
        "details": "Atomically increases the allowance granted to `spender` by the caller. This is an alternative to {approve} that can be used as a mitigation for problems described in {IERC20-approve}. Emits an {Approval} event indicating the updated allowance. Requirements: - `spender` cannot be the zero address."
      },
      "name()": {
        "details": "Returns the name of the token."
      },
      "symbol()": {
        "details": "Returns the symbol of the token, usually a shorter version of the name."
      },
      "totalSupply()": {
        "details": "See {IERC20-totalSupply}."
      },
      "transfer(address,uint256)": {
        "details": "See {IERC20-transfer}. Requirements: - `recipient` cannot be the zero address. - the caller must have a balance of at least `amount`."
      },
      "transferFrom(address,address,uint256)": {
        "details": "See {IERC20-transferFrom}. Emits an {Approval} event indicating the updated allowance. This is not required by the EIP. See the note at the beginning of {ERC20}. Requirements: - `sender` and `recipient` cannot be the zero address. - `sender` must have a balance of at least `amount`. - the caller must have allowance for ``sender``'s tokens of at least `amount`."
      }
    },
    "version": 1
  },
  "userdoc": {
    "kind": "user",
    "methods": {},
    "version": 1
  }
}