{
  "contractName": "SeverStore",
  "abi": [
    {
      "inputs": [],
      "stateMutability": "nonpayable",
      "type": "constructor"
    },
    {
      "anonymous": false,
      "inputs": [
        {
          "indexed": true,
          "internalType": "address",
          "name": "owner",
          "type": "address"
        },
        {
          "indexed": true,
          "internalType": "address",
          "name": "spender",
          "type": "address"
        },
        {
          "indexed": false,
          "internalType": "uint256",
          "name": "value",
          "type": "uint256"
        }
      ],
      "name": "Approval",
      "type": "event"
    },
    {
      "anonymous": false,
      "inputs": [
        {
          "indexed": true,
          "internalType": "address",
          "name": "from",
          "type": "address"
        },
        {
          "indexed": true,
          "internalType": "address",
          "name": "to",
          "type": "address"
        },
        {
          "indexed": false,
          "internalType": "uint256",
          "name": "value",
          "type": "uint256"
        }
      ],
      "name": "Transfer",
      "type": "event"
    },
    {
      "inputs": [
        {
          "internalType": "address",
          "name": "owner",
          "type": "address"
        },
        {
          "internalType": "address",
          "name": "spender",
          "type": "address"
        }
      ],
      "name": "allowance",
      "outputs": [
        {
          "internalType": "uint256",
          "name": "",
          "type": "uint256"
        }
      ],
      "stateMutability": "view",
      "type": "function",
      "constant": true
    },
    {
      "inputs": [
        {
          "internalType": "address",
          "name": "spender",
          "type": "address"
        },
        {
          "internalType": "uint256",
          "name": "amount",
          "type": "uint256"
        }
      ],
      "name": "approve",
      "outputs": [
        {
          "internalType": "bool",
          "name": "",
          "type": "bool"
        }
      ],
      "stateMutability": "nonpayable",
      "type": "function"
    },
    {
      "inputs": [
        {
          "internalType": "address",
          "name": "account",
          "type": "address"
        }
      ],
      "name": "balanceOf",
      "outputs": [
        {
          "internalType": "uint256",
          "name": "",
          "type": "uint256"
        }
      ],
      "stateMutability": "view",
      "type": "function",
      "constant": true
    },
    {
      "inputs": [],
      "name": "decimals",
      "outputs": [
        {
          "internalType": "uint8",
          "name": "",
          "type": "uint8"
        }
      ],
      "stateMutability": "view",
      "type": "function",
      "constant": true
    },
    {
      "inputs": [
        {
          "internalType": "address",
          "name": "spender",
          "type": "address"
        },
        {
          "internalType": "uint256",
          "name": "subtractedValue",
          "type": "uint256"
        }
      ],
      "name": "decreaseAllowance",
      "outputs": [
        {
          "internalType": "bool",
          "name": "",
          "type": "bool"
        }
      ],
      "stateMutability": "nonpayable",
      "type": "function"
    },
    {
      "inputs": [
        {
          "internalType": "address",
          "name": "spender",
          "type": "address"
        },
        {
          "internalType": "uint256",
          "name": "addedValue",
          "type": "uint256"
        }
      ],
      "name": "increaseAllowance",
      "outputs": [
        {
          "internalType": "bool",
          "name": "",
          "type": "bool"
        }
      ],
      "stateMutability": "nonpayable",
      "type": "function"
    },
    {
      "inputs": [],
      "name": "name",
      "outputs": [
        {
          "internalType": "string",
          "name": "",
          "type": "string"
        }
      ],
      "stateMutability": "view",
      "type": "function",
      "constant": true
    },
    {
      "inputs": [],
      "name": "symbol",
      "outputs": [
        {
          "internalType": "string",
          "name": "",
          "type": "string"
        }
      ],
      "stateMutability": "view",
      "type": "function",
      "constant": true
    },
    {
      "inputs": [],
      "name": "totalSupply",
      "outputs": [
        {
          "internalType": "uint256",
          "name": "",
          "type": "uint256"
        }
      ],
      "stateMutability": "view",
      "type": "function",
      "constant": true
    },
    {
      "inputs": [
        {
          "internalType": "address",
          "name": "recipient",
          "type": "address"
        },
        {
          "internalType": "uint256",
          "name": "amount",
          "type": "uint256"
        }
      ],
      "name": "transfer",
      "outputs": [
        {
          "internalType": "bool",
          "name": "",
          "type": "bool"
        }
      ],
      "stateMutability": "nonpayable",
      "type": "function"
    },
    {
      "inputs": [
        {
          "internalType": "address",
          "name": "sender",
          "type": "address"
        },
        {
          "internalType": "address",
          "name": "recipient",
          "type": "address"
        },
        {
          "internalType": "uint256",
          "name": "amount",
          "type": "uint256"
        }
      ],
      "name": "transferFrom",
      "outputs": [
        {
          "internalType": "bool",
          "name": "",
          "type": "bool"
        }
      ],
      "stateMutability": "nonpayable",
      "type": "function"
    },
    {
      "inputs": [
        {
          "internalType": "uint256",
          "name": "_team",
          "type": "uint256"
        },
        {
          "internalType": "address[]",
          "name": "_ptcp",
          "type": "address[]"
        },
        {
          "internalType": "string[]",
          "name": "_hash",
          "type": "string[]"
        }
      ],
      "name": "putBlock",
      "outputs": [],
      "stateMutability": "nonpayable",
      "type": "function"
    },
    {
      "inputs": [
        {
          "internalType": "uint256",
          "name": "_teamId",
          "type": "uint256"
        }
      ],
      "name": "getname",
      "outputs": [
        {
          "internalType": "address[]",
          "name": "",
          "type": "address[]"
        }
      ],
      "stateMutability": "view",
      "type": "function",
      "constant": true
    },
    {
      "inputs": [
        {
          "internalType": "uint256",
          "name": "_teamId",
          "type": "uint256"
        }
      ],
      "name": "gethash",
      "outputs": [
        {
          "internalType": "string",
          "name": "",
          "type": "string"
        }
      ],
      "stateMutability": "view",
      "type": "function",
      "constant": true
    },
    {
      "inputs": [],
      "name": "connection",
      "outputs": [
        {
          "internalType": "string",
          "name": "",
          "type": "string"
        }
      ],
      "stateMutability": "view",
      "type": "function",
      "constant": true
    }
  ],
  "bytecode": "0x608060405260006006556040518060400160405280600881526020017f6661726577656c6c0000000000000000000000000000000000000000000000008152506007908051906020019062000056929190620002a8565b503480156200006457600080fd5b506040518060400160405280600681526020017f54687265616400000000000000000000000000000000000000000000000000008152506040518060400160405280600481526020017f54485265000000000000000000000000000000000000000000000000000000008152508160039080519060200190620000e9929190620002a8565b50806004908051906020019062000102929190620002a8565b5050506200011f33678ac7230489e800006200012560201b60201c565b62000504565b600073ffffffffffffffffffffffffffffffffffffffff168273ffffffffffffffffffffffffffffffffffffffff16141562000198576040517f08c379a00000000000000000000000000000000000000000000000000000000081526004016200018f90620003b9565b60405180910390fd5b620001ac600083836200029e60201b60201c565b8060026000828254620001c0919062000414565b92505081905550806000808473ffffffffffffffffffffffffffffffffffffffff1673ffffffffffffffffffffffffffffffffffffffff168152602001908152602001600020600082825462000217919062000414565b925050819055508173ffffffffffffffffffffffffffffffffffffffff16600073ffffffffffffffffffffffffffffffffffffffff167fddf252ad1be2c89b69c2b068fc378daa952ba7f163c4a11628f55a4df523b3ef836040516200027e919062000482565b60405180910390a36200029a60008383620002a360201b60201c565b5050565b505050565b505050565b828054620002b690620004ce565b90600052602060002090601f016020900481019282620002da576000855562000326565b82601f10620002f557805160ff191683800117855562000326565b8280016001018555821562000326579182015b828111156200032557825182559160200191906001019062000308565b5b50905062000335919062000339565b5090565b5b80821115620003545760008160009055506001016200033a565b5090565b600082825260208201905092915050565b7f45524332303a206d696e7420746f20746865207a65726f206164647265737300600082015250565b6000620003a1601f8362000358565b9150620003ae8262000369565b602082019050919050565b60006020820190508181036000830152620003d48162000392565b9050919050565b6000819050919050565b7f4e487b7100000000000000000000000000000000000000000000000000000000600052601160045260246000fd5b60006200042182620003db565b91506200042e83620003db565b9250827fffffffffffffffffffffffffffffffffffffffffffffffffffffffffffffffff03821115620004665762000465620003e5565b5b828201905092915050565b6200047c81620003db565b82525050565b600060208201905062000499600083018462000471565b92915050565b7f4e487b7100000000000000000000000000000000000000000000000000000000600052602260045260246000fd5b60006002820490506001821680620004e757607f821691505b60208210811415620004fe57620004fd6200049f565b5b50919050565b611f4880620005146000396000f3fe608060405234801561001057600080fd5b50600436106100f55760003560e01c806370a0823111610097578063c3769ebb11610066578063c3769ebb146102c2578063dd62ed3e146102de578063fd19016c1461030e578063fdb9da931461032c576100f5565b806370a082311461021457806395d89b4114610244578063a457c2d714610262578063a9059cbb14610292576100f5565b806318160ddd116100d357806318160ddd1461017857806323b872dd14610196578063313ce567146101c657806339509351146101e4576100f5565b80630202ace1146100fa57806306fdde031461012a578063095ea7b314610148575b600080fd5b610114600480360381019061010f91906111fa565b61035c565b6040516101219190611317565b60405180910390f35b610132610400565b60405161013f91906113d2565b60405180910390f35b610162600480360381019061015d9190611420565b610492565b60405161016f919061147b565b60405180910390f35b6101806104b0565b60405161018d91906114a5565b60405180910390f35b6101b060048036038101906101ab91906114c0565b6104ba565b6040516101bd919061147b565b60405180910390f35b6101ce6105b2565b6040516101db919061152f565b60405180910390f35b6101fe60048036038101906101f99190611420565b6105bb565b60405161020b919061147b565b60405180910390f35b61022e6004803603810190610229919061154a565b610667565b60405161023b91906114a5565b60405180910390f35b61024c6106af565b60405161025991906113d2565b60405180910390f35b61027c60048036038101906102779190611420565b610741565b604051610289919061147b565b60405180910390f35b6102ac60048036038101906102a79190611420565b61082c565b6040516102b9919061147b565b60405180910390f35b6102dc60048036038101906102d79190611855565b61084a565b005b6102f860048036038101906102f391906118e0565b61098e565b60405161030591906114a5565b60405180910390f35b610316610a15565b60405161032391906113d2565b60405180910390f35b610346600480360381019061034191906111fa565b610aa7565b60405161035391906113d2565b60405180910390f35b6060600560008381526020019081526020016000206000018054806020026020016040519081016040528092919081815260200182805480156103f457602002820191906000526020600020905b8160009054906101000a900473ffffffffffffffffffffffffffffffffffffffff1673ffffffffffffffffffffffffffffffffffffffff16815260200190600101908083116103aa575b50505050509050919050565b60606003805461040f9061194f565b80601f016020809104026020016040519081016040528092919081815260200182805461043b9061194f565b80156104885780601f1061045d57610100808354040283529160200191610488565b820191906000526020600020905b81548152906001019060200180831161046b57829003601f168201915b5050505050905090565b60006104a661049f610b4f565b8484610b57565b6001905092915050565b6000600254905090565b60006104c7848484610d22565b6000600160008673ffffffffffffffffffffffffffffffffffffffff1673ffffffffffffffffffffffffffffffffffffffff1681526020019081526020016000206000610512610b4f565b73ffffffffffffffffffffffffffffffffffffffff1673ffffffffffffffffffffffffffffffffffffffff16815260200190815260200160002054905082811015610592576040517f08c379a0000000000000000000000000000000000000000000000000000000008152600401610589906119f3565b60405180910390fd5b6105a68561059e610b4f565b858403610b57565b60019150509392505050565b60006012905090565b600061065d6105c8610b4f565b8484600160006105d6610b4f565b73ffffffffffffffffffffffffffffffffffffffff1673ffffffffffffffffffffffffffffffffffffffff16815260200190815260200160002060008873ffffffffffffffffffffffffffffffffffffffff1673ffffffffffffffffffffffffffffffffffffffff168152602001908152602001600020546106589190611a42565b610b57565b6001905092915050565b60008060008373ffffffffffffffffffffffffffffffffffffffff1673ffffffffffffffffffffffffffffffffffffffff168152602001908152602001600020549050919050565b6060600480546106be9061194f565b80601f01602080910402602001604051908101604052809291908181526020018280546106ea9061194f565b80156107375780601f1061070c57610100808354040283529160200191610737565b820191906000526020600020905b81548152906001019060200180831161071a57829003601f168201915b5050505050905090565b60008060016000610750610b4f565b73ffffffffffffffffffffffffffffffffffffffff1673ffffffffffffffffffffffffffffffffffffffff16815260200190815260200160002060008573ffffffffffffffffffffffffffffffffffffffff1673ffffffffffffffffffffffffffffffffffffffff1681526020019081526020016000205490508281101561080d576040517f08c379a000000000000000000000000000000000000000000000000000000000815260040161080490611b0a565b60405180910390fd5b610821610818610b4f565b85858403610b57565b600191505092915050565b6000610840610839610b4f565b8484610d22565b6001905092915050565b60005b82518160ff16146109885760056000858152602001908152602001600020600001838260ff168151811061088457610883611b2a565b5b60200260200101519080600181540180825580915050600190039060005260206000200160009091909190916101000a81548173ffffffffffffffffffffffffffffffffffffffff021916908373ffffffffffffffffffffffffffffffffffffffff16021790555081600081518110610900576108ff611b2a565b5b602002602001015160056000868152602001908152602001600020600101908051906020019061093192919061110d565b50610961838260ff168151811061094b5761094a611b2a565b5b6020026020010151670de0b6b3a7640000610fa3565b8061096b90611b59565b905060066000815461097c90611b83565b9190508190555061084d565b50505050565b6000600160008473ffffffffffffffffffffffffffffffffffffffff1673ffffffffffffffffffffffffffffffffffffffff16815260200190815260200160002060008373ffffffffffffffffffffffffffffffffffffffff1673ffffffffffffffffffffffffffffffffffffffff16815260200190815260200160002054905092915050565b606060078054610a249061194f565b80601f0160208091040260200160405190810160405280929190818152602001828054610a509061194f565b8015610a9d5780601f10610a7257610100808354040283529160200191610a9d565b820191906000526020600020905b815481529060010190602001808311610a8057829003601f168201915b5050505050905090565b6060600560008381526020019081526020016000206001018054610aca9061194f565b80601f0160208091040260200160405190810160405280929190818152602001828054610af69061194f565b8015610b435780601f10610b1857610100808354040283529160200191610b43565b820191906000526020600020905b815481529060010190602001808311610b2657829003601f168201915b50505050509050919050565b600033905090565b600073ffffffffffffffffffffffffffffffffffffffff168373ffffffffffffffffffffffffffffffffffffffff161415610bc7576040517f08c379a0000000000000000000000000000000000000000000000000000000008152600401610bbe90611c3e565b60405180910390fd5b600073ffffffffffffffffffffffffffffffffffffffff168273ffffffffffffffffffffffffffffffffffffffff161415610c37576040517f08c379a0000000000000000000000000000000000000000000000000000000008152600401610c2e90611cd0565b60405180910390fd5b80600160008573ffffffffffffffffffffffffffffffffffffffff1673ffffffffffffffffffffffffffffffffffffffff16815260200190815260200160002060008473ffffffffffffffffffffffffffffffffffffffff1673ffffffffffffffffffffffffffffffffffffffff168152602001908152602001600020819055508173ffffffffffffffffffffffffffffffffffffffff168373ffffffffffffffffffffffffffffffffffffffff167f8c5be1e5ebec7d5bd14f71427d1e84f3dd0314c0f7b2291e5b200ac8c7c3b92583604051610d1591906114a5565b60405180910390a3505050565b600073ffffffffffffffffffffffffffffffffffffffff168373ffffffffffffffffffffffffffffffffffffffff161415610d92576040517f08c379a0000000000000000000000000000000000000000000000000000000008152600401610d8990611d62565b60405180910390fd5b600073ffffffffffffffffffffffffffffffffffffffff168273ffffffffffffffffffffffffffffffffffffffff161415610e02576040517f08c379a0000000000000000000000000000000000000000000000000000000008152600401610df990611df4565b60405180910390fd5b610e0d838383611103565b60008060008573ffffffffffffffffffffffffffffffffffffffff1673ffffffffffffffffffffffffffffffffffffffff16815260200190815260200160002054905081811015610e93576040517f08c379a0000000000000000000000000000000000000000000000000000000008152600401610e8a90611e86565b60405180910390fd5b8181036000808673ffffffffffffffffffffffffffffffffffffffff1673ffffffffffffffffffffffffffffffffffffffff16815260200190815260200160002081905550816000808573ffffffffffffffffffffffffffffffffffffffff1673ffffffffffffffffffffffffffffffffffffffff1681526020019081526020016000206000828254610f269190611a42565b925050819055508273ffffffffffffffffffffffffffffffffffffffff168473ffffffffffffffffffffffffffffffffffffffff167fddf252ad1be2c89b69c2b068fc378daa952ba7f163c4a11628f55a4df523b3ef84604051610f8a91906114a5565b60405180910390a3610f9d848484611108565b50505050565b600073ffffffffffffffffffffffffffffffffffffffff168273ffffffffffffffffffffffffffffffffffffffff161415611013576040517f08c379a000000000000000000000000000000000000000000000000000000000815260040161100a90611ef2565b60405180910390fd5b61101f60008383611103565b80600260008282546110319190611a42565b92505081905550806000808473ffffffffffffffffffffffffffffffffffffffff1673ffffffffffffffffffffffffffffffffffffffff16815260200190815260200160002060008282546110869190611a42565b925050819055508173ffffffffffffffffffffffffffffffffffffffff16600073ffffffffffffffffffffffffffffffffffffffff167fddf252ad1be2c89b69c2b068fc378daa952ba7f163c4a11628f55a4df523b3ef836040516110eb91906114a5565b60405180910390a36110ff60008383611108565b5050565b505050565b505050565b8280546111199061194f565b90600052602060002090601f01602090048101928261113b5760008555611182565b82601f1061115457805160ff1916838001178555611182565b82800160010185558215611182579182015b82811115611181578251825591602001919060010190611166565b5b50905061118f9190611193565b5090565b5b808211156111ac576000816000905550600101611194565b5090565b6000604051905090565b600080fd5b600080fd5b6000819050919050565b6111d7816111c4565b81146111e257600080fd5b50565b6000813590506111f4816111ce565b92915050565b6000602082840312156112105761120f6111ba565b5b600061121e848285016111e5565b91505092915050565b600081519050919050565b600082825260208201905092915050565b6000819050602082019050919050565b600073ffffffffffffffffffffffffffffffffffffffff82169050919050565b600061127e82611253565b9050919050565b61128e81611273565b82525050565b60006112a08383611285565b60208301905092915050565b6000602082019050919050565b60006112c482611227565b6112ce8185611232565b93506112d983611243565b8060005b8381101561130a5781516112f18882611294565b97506112fc836112ac565b9250506001810190506112dd565b5085935050505092915050565b6000602082019050818103600083015261133181846112b9565b905092915050565b600081519050919050565b600082825260208201905092915050565b60005b83811015611373578082015181840152602081019050611358565b83811115611382576000848401525b50505050565b6000601f19601f8301169050919050565b60006113a482611339565b6113ae8185611344565b93506113be818560208601611355565b6113c781611388565b840191505092915050565b600060208201905081810360008301526113ec8184611399565b905092915050565b6113fd81611273565b811461140857600080fd5b50565b60008135905061141a816113f4565b92915050565b60008060408385031215611437576114366111ba565b5b60006114458582860161140b565b9250506020611456858286016111e5565b9150509250929050565b60008115159050919050565b61147581611460565b82525050565b6000602082019050611490600083018461146c565b92915050565b61149f816111c4565b82525050565b60006020820190506114ba6000830184611496565b92915050565b6000806000606084860312156114d9576114d86111ba565b5b60006114e78682870161140b565b93505060206114f88682870161140b565b9250506040611509868287016111e5565b9150509250925092565b600060ff82169050919050565b61152981611513565b82525050565b60006020820190506115446000830184611520565b92915050565b6000602082840312156115605761155f6111ba565b5b600061156e8482850161140b565b91505092915050565b600080fd5b7f4e487b7100000000000000000000000000000000000000000000000000000000600052604160045260246000fd5b6115b482611388565b810181811067ffffffffffffffff821117156115d3576115d261157c565b5b80604052505050565b60006115e66111b0565b90506115f282826115ab565b919050565b600067ffffffffffffffff8211156116125761161161157c565b5b602082029050602081019050919050565b600080fd5b600061163b611636846115f7565b6115dc565b9050808382526020820190506020840283018581111561165e5761165d611623565b5b835b818110156116875780611673888261140b565b845260208401935050602081019050611660565b5050509392505050565b600082601f8301126116a6576116a5611577565b5b81356116b6848260208601611628565b91505092915050565b600067ffffffffffffffff8211156116da576116d961157c565b5b602082029050602081019050919050565b600080fd5b600067ffffffffffffffff82111561170b5761170a61157c565b5b61171482611388565b9050602081019050919050565b82818337600083830152505050565b600061174361173e846116f0565b6115dc565b90508281526020810184848401111561175f5761175e6116eb565b5b61176a848285611721565b509392505050565b600082601f83011261178757611786611577565b5b8135611797848260208601611730565b91505092915050565b60006117b36117ae846116bf565b6115dc565b905080838252602082019050602084028301858111156117d6576117d5611623565b5b835b8181101561181d57803567ffffffffffffffff8111156117fb576117fa611577565b5b8086016118088982611772565b855260208501945050506020810190506117d8565b5050509392505050565b600082601f83011261183c5761183b611577565b5b813561184c8482602086016117a0565b91505092915050565b60008060006060848603121561186e5761186d6111ba565b5b600061187c868287016111e5565b935050602084013567ffffffffffffffff81111561189d5761189c6111bf565b5b6118a986828701611691565b925050604084013567ffffffffffffffff8111156118ca576118c96111bf565b5b6118d686828701611827565b9150509250925092565b600080604083850312156118f7576118f66111ba565b5b60006119058582860161140b565b92505060206119168582860161140b565b9150509250929050565b7f4e487b7100000000000000000000000000000000000000000000000000000000600052602260045260246000fd5b6000600282049050600182168061196757607f821691505b6020821081141561197b5761197a611920565b5b50919050565b7f45524332303a207472616e7366657220616d6f756e742065786365656473206160008201527f6c6c6f77616e6365000000000000000000000000000000000000000000000000602082015250565b60006119dd602883611344565b91506119e882611981565b604082019050919050565b60006020820190508181036000830152611a0c816119d0565b9050919050565b7f4e487b7100000000000000000000000000000000000000000000000000000000600052601160045260246000fd5b6000611a4d826111c4565b9150611a58836111c4565b9250827fffffffffffffffffffffffffffffffffffffffffffffffffffffffffffffffff03821115611a8d57611a8c611a13565b5b828201905092915050565b7f45524332303a2064656372656173656420616c6c6f77616e63652062656c6f7760008201527f207a65726f000000000000000000000000000000000000000000000000000000602082015250565b6000611af4602583611344565b9150611aff82611a98565b604082019050919050565b60006020820190508181036000830152611b2381611ae7565b9050919050565b7f4e487b7100000000000000000000000000000000000000000000000000000000600052603260045260246000fd5b6000611b6482611513565b915060ff821415611b7857611b77611a13565b5b600182019050919050565b6000611b8e826111c4565b91507fffffffffffffffffffffffffffffffffffffffffffffffffffffffffffffffff821415611bc157611bc0611a13565b5b600182019050919050565b7f45524332303a20617070726f76652066726f6d20746865207a65726f2061646460008201527f7265737300000000000000000000000000000000000000000000000000000000602082015250565b6000611c28602483611344565b9150611c3382611bcc565b604082019050919050565b60006020820190508181036000830152611c5781611c1b565b9050919050565b7f45524332303a20617070726f766520746f20746865207a65726f20616464726560008201527f7373000000000000000000000000000000000000000000000000000000000000602082015250565b6000611cba602283611344565b9150611cc582611c5e565b604082019050919050565b60006020820190508181036000830152611ce981611cad565b9050919050565b7f45524332303a207472616e736665722066726f6d20746865207a65726f20616460008201527f6472657373000000000000000000000000000000000000000000000000000000602082015250565b6000611d4c602583611344565b9150611d5782611cf0565b604082019050919050565b60006020820190508181036000830152611d7b81611d3f565b9050919050565b7f45524332303a207472616e7366657220746f20746865207a65726f206164647260008201527f6573730000000000000000000000000000000000000000000000000000000000602082015250565b6000611dde602383611344565b9150611de982611d82565b604082019050919050565b60006020820190508181036000830152611e0d81611dd1565b9050919050565b7f45524332303a207472616e7366657220616d6f756e742065786365656473206260008201527f616c616e63650000000000000000000000000000000000000000000000000000602082015250565b6000611e70602683611344565b9150611e7b82611e14565b604082019050919050565b60006020820190508181036000830152611e9f81611e63565b9050919050565b7f45524332303a206d696e7420746f20746865207a65726f206164647265737300600082015250565b6000611edc601f83611344565b9150611ee782611ea6565b602082019050919050565b60006020820190508181036000830152611f0b81611ecf565b905091905056fea2646970667358221220c18e8179038e9eac7f2c06bbaf28995f0ff5438b814c9a78ede082dc3cfbebe964736f6c634300080b0033",
  "immutableReferences": {},
  "source": "pragma solidity ^0.8.3;\r\n\r\nimport '../client/node_modules/openzeppelin-solidity/contracts/token/ERC20/ERC20.sol';\r\n\r\ncontract SeverStore is ERC20{\r\n\r\n    constructor() ERC20(\"Thread\", \"THRe\") {\r\n        _mint(msg.sender, 10*10**18);\r\n    }\r\n    struct playTeam {\r\n        address[] name;\r\n        string hash;\r\n    }\r\n    mapping(uint => playTeam) history;\r\n\r\n    uint countMint = 0;\r\n    string connecTecs = \"farewell\";\r\n\r\n    function putBlock(uint _team, address[] memory _ptcp, string[] memory _hash) public\r\n    {\r\n        uint8 iterA = 0;\r\n        while(iterA != _ptcp.length)\r\n        {\r\n            //history[_team].name[iterA] = _ptcp[iterA];\r\n            history[_team].name.push(_ptcp[iterA]);\r\n            history[_team].hash = _hash[0];\r\n            _mint(_ptcp[iterA], 1*10**18);\r\n            ++iterA;\r\n            ++countMint;\r\n        }\r\n    }\r\n    function getname(uint _teamId) public view returns(address[] memory){\r\n        return history[_teamId].name;\r\n    }\r\n    function gethash(uint _teamId) public view returns(string memory){\r\n        return history[_teamId].hash;\r\n    }\r\n    function connection() public view returns(string memory){\r\n        return connecTecs;\r\n    }\r\n}\r\n\r\n//[\"0x5B38Da6a701c568545dCfcB03FcB875f56beddC4\", \"0xAb8483F64d9C6d1EcF9b849Ae677dD3315835cb2\"]\r\n//[\"hasha\", \"hashb\"]",
  "sourcePath": "D:\\workspace\\BBwork_block\\pogre\\trufflebox\\contracts\\SeverStore.sol",
  "compiler": {
    "name": "solc",
    "version": "0.8.11+commit.d7f03943.Emscripten.clang"
  },
  "schemaVersion": "3.4.2",
  "updatedAt": "2022-01-16T15:35:06.552Z",
  "networkType": "ethereum",
  "devdoc": {
    "kind": "dev",
    "methods": {
      "allowance(address,address)": {
        "details": "See {IERC20-allowance}."
      },
      "approve(address,uint256)": {
        "details": "See {IERC20-approve}. Requirements: - `spender` cannot be the zero address."
      },
      "balanceOf(address)": {
        "details": "See {IERC20-balanceOf}."
      },
      "decimals()": {
        "details": "Returns the number of decimals used to get its user representation. For example, if `decimals` equals `2`, a balance of `505` tokens should be displayed to a user as `5.05` (`505 / 10 ** 2`). Tokens usually opt for a value of 18, imitating the relationship between Ether and Wei. This is the value {ERC20} uses, unless this function is overridden; NOTE: This information is only used for _display_ purposes: it in no way affects any of the arithmetic of the contract, including {IERC20-balanceOf} and {IERC20-transfer}."
      },
      "decreaseAllowance(address,uint256)": {
        "details": "Atomically decreases the allowance granted to `spender` by the caller. This is an alternative to {approve} that can be used as a mitigation for problems described in {IERC20-approve}. Emits an {Approval} event indicating the updated allowance. Requirements: - `spender` cannot be the zero address. - `spender` must have allowance for the caller of at least `subtractedValue`."
      },
      "increaseAllowance(address,uint256)": {
        "details": "Atomically increases the allowance granted to `spender` by the caller. This is an alternative to {approve} that can be used as a mitigation for problems described in {IERC20-approve}. Emits an {Approval} event indicating the updated allowance. Requirements: - `spender` cannot be the zero address."
      },
      "name()": {
        "details": "Returns the name of the token."
      },
      "symbol()": {
        "details": "Returns the symbol of the token, usually a shorter version of the name."
      },
      "totalSupply()": {
        "details": "See {IERC20-totalSupply}."
      },
      "transfer(address,uint256)": {
        "details": "See {IERC20-transfer}. Requirements: - `recipient` cannot be the zero address. - the caller must have a balance of at least `amount`."
      },
      "transferFrom(address,address,uint256)": {
        "details": "See {IERC20-transferFrom}. Emits an {Approval} event indicating the updated allowance. This is not required by the EIP. See the note at the beginning of {ERC20}. Requirements: - `sender` and `recipient` cannot be the zero address. - `sender` must have a balance of at least `amount`. - the caller must have allowance for ``sender``'s tokens of at least `amount`."
      }
    },
    "version": 1
  },
  "userdoc": {
    "kind": "user",
    "methods": {},
    "version": 1
  }
}