{
  "contractName": "SeverStore",
  "abi": [
    {
      "inputs": [],
      "stateMutability": "nonpayable",
      "type": "constructor"
    },
    {
      "anonymous": false,
      "inputs": [
        {
          "indexed": true,
          "internalType": "address",
          "name": "owner",
          "type": "address"
        },
        {
          "indexed": true,
          "internalType": "address",
          "name": "spender",
          "type": "address"
        },
        {
          "indexed": false,
          "internalType": "uint256",
          "name": "value",
          "type": "uint256"
        }
      ],
      "name": "Approval",
      "type": "event"
    },
    {
      "anonymous": false,
      "inputs": [
        {
          "indexed": true,
          "internalType": "address",
          "name": "from",
          "type": "address"
        },
        {
          "indexed": true,
          "internalType": "address",
          "name": "to",
          "type": "address"
        },
        {
          "indexed": false,
          "internalType": "uint256",
          "name": "value",
          "type": "uint256"
        }
      ],
      "name": "Transfer",
      "type": "event"
    },
    {
      "inputs": [
        {
          "internalType": "address",
          "name": "owner",
          "type": "address"
        },
        {
          "internalType": "address",
          "name": "spender",
          "type": "address"
        }
      ],
      "name": "allowance",
      "outputs": [
        {
          "internalType": "uint256",
          "name": "",
          "type": "uint256"
        }
      ],
      "stateMutability": "view",
      "type": "function"
    },
    {
      "inputs": [
        {
          "internalType": "address",
          "name": "spender",
          "type": "address"
        },
        {
          "internalType": "uint256",
          "name": "amount",
          "type": "uint256"
        }
      ],
      "name": "approve",
      "outputs": [
        {
          "internalType": "bool",
          "name": "",
          "type": "bool"
        }
      ],
      "stateMutability": "nonpayable",
      "type": "function"
    },
    {
      "inputs": [
        {
          "internalType": "address",
          "name": "account",
          "type": "address"
        }
      ],
      "name": "balanceOf",
      "outputs": [
        {
          "internalType": "uint256",
          "name": "",
          "type": "uint256"
        }
      ],
      "stateMutability": "view",
      "type": "function"
    },
    {
      "inputs": [],
      "name": "decimals",
      "outputs": [
        {
          "internalType": "uint8",
          "name": "",
          "type": "uint8"
        }
      ],
      "stateMutability": "view",
      "type": "function"
    },
    {
      "inputs": [
        {
          "internalType": "address",
          "name": "spender",
          "type": "address"
        },
        {
          "internalType": "uint256",
          "name": "subtractedValue",
          "type": "uint256"
        }
      ],
      "name": "decreaseAllowance",
      "outputs": [
        {
          "internalType": "bool",
          "name": "",
          "type": "bool"
        }
      ],
      "stateMutability": "nonpayable",
      "type": "function"
    },
    {
      "inputs": [
        {
          "internalType": "address",
          "name": "spender",
          "type": "address"
        },
        {
          "internalType": "uint256",
          "name": "addedValue",
          "type": "uint256"
        }
      ],
      "name": "increaseAllowance",
      "outputs": [
        {
          "internalType": "bool",
          "name": "",
          "type": "bool"
        }
      ],
      "stateMutability": "nonpayable",
      "type": "function"
    },
    {
      "inputs": [],
      "name": "name",
      "outputs": [
        {
          "internalType": "string",
          "name": "",
          "type": "string"
        }
      ],
      "stateMutability": "view",
      "type": "function"
    },
    {
      "inputs": [],
      "name": "symbol",
      "outputs": [
        {
          "internalType": "string",
          "name": "",
          "type": "string"
        }
      ],
      "stateMutability": "view",
      "type": "function"
    },
    {
      "inputs": [],
      "name": "totalSupply",
      "outputs": [
        {
          "internalType": "uint256",
          "name": "",
          "type": "uint256"
        }
      ],
      "stateMutability": "view",
      "type": "function"
    },
    {
      "inputs": [
        {
          "internalType": "address",
          "name": "recipient",
          "type": "address"
        },
        {
          "internalType": "uint256",
          "name": "amount",
          "type": "uint256"
        }
      ],
      "name": "transfer",
      "outputs": [
        {
          "internalType": "bool",
          "name": "",
          "type": "bool"
        }
      ],
      "stateMutability": "nonpayable",
      "type": "function"
    },
    {
      "inputs": [
        {
          "internalType": "address",
          "name": "sender",
          "type": "address"
        },
        {
          "internalType": "address",
          "name": "recipient",
          "type": "address"
        },
        {
          "internalType": "uint256",
          "name": "amount",
          "type": "uint256"
        }
      ],
      "name": "transferFrom",
      "outputs": [
        {
          "internalType": "bool",
          "name": "",
          "type": "bool"
        }
      ],
      "stateMutability": "nonpayable",
      "type": "function"
    },
    {
      "inputs": [
        {
          "internalType": "uint256",
          "name": "_team",
          "type": "uint256"
        },
        {
          "internalType": "address[]",
          "name": "_ptcp",
          "type": "address[]"
        },
        {
          "internalType": "uint256[]",
          "name": "_stake",
          "type": "uint256[]"
        },
        {
          "internalType": "uint256",
          "name": "_price",
          "type": "uint256"
        }
      ],
      "name": "putBlock",
      "outputs": [],
      "stateMutability": "nonpayable",
      "type": "function"
    },
    {
      "inputs": [
        {
          "internalType": "uint256",
          "name": "_value",
          "type": "uint256"
        },
        {
          "internalType": "address",
          "name": "_editor",
          "type": "address"
        }
      ],
      "name": "retrieve",
      "outputs": [],
      "stateMutability": "nonpayable",
      "type": "function"
    },
    {
      "inputs": [
        {
          "internalType": "uint256",
          "name": "_team",
          "type": "uint256"
        },
        {
          "internalType": "address",
          "name": "_buyer",
          "type": "address"
        },
        {
          "internalType": "address[]",
          "name": "_ptcp",
          "type": "address[]"
        }
      ],
      "name": "purchase",
      "outputs": [],
      "stateMutability": "nonpayable",
      "type": "function"
    },
    {
      "inputs": [
        {
          "internalType": "uint256",
          "name": "_team",
          "type": "uint256"
        }
      ],
      "name": "getPtcp",
      "outputs": [
        {
          "internalType": "address[]",
          "name": "",
          "type": "address[]"
        }
      ],
      "stateMutability": "view",
      "type": "function"
    },
    {
      "inputs": [
        {
          "internalType": "uint256",
          "name": "_team",
          "type": "uint256"
        }
      ],
      "name": "getStake",
      "outputs": [
        {
          "internalType": "uint256[]",
          "name": "",
          "type": "uint256[]"
        }
      ],
      "stateMutability": "view",
      "type": "function"
    },
    {
      "inputs": [
        {
          "internalType": "uint256",
          "name": "_team",
          "type": "uint256"
        }
      ],
      "name": "getOwner",
      "outputs": [
        {
          "internalType": "address",
          "name": "",
          "type": "address"
        }
      ],
      "stateMutability": "view",
      "type": "function"
    },
    {
      "inputs": [
        {
          "internalType": "uint256",
          "name": "_team",
          "type": "uint256"
        }
      ],
      "name": "getPrice",
      "outputs": [
        {
          "internalType": "uint256",
          "name": "",
          "type": "uint256"
        }
      ],
      "stateMutability": "view",
      "type": "function"
    }
  ],
  "bytecode": "0x608060405260006006553480156200001657600080fd5b506040518060400160405280600681526020017f54687265616400000000000000000000000000000000000000000000000000008152506040518060400160405280600481526020017f544852650000000000000000000000000000000000000000000000000000000081525081600390805190602001906200009b929190620000bd565b508060049080519060200190620000b4929190620000bd565b505050620001d1565b828054620000cb906200019c565b90600052602060002090601f016020900481019282620000ef57600085556200013b565b82601f106200010a57805160ff19168380011785556200013b565b828001600101855582156200013b579182015b828111156200013a5782518255916020019190600101906200011d565b5b5090506200014a91906200014e565b5090565b5b80821115620001695760008160009055506001016200014f565b5090565b7f4e487b7100000000000000000000000000000000000000000000000000000000600052602260045260246000fd5b60006002820490506001821680620001b557607f821691505b602082108103620001cb57620001ca6200016d565b5b50919050565b61216480620001e16000396000f3fe608060405234801561001057600080fd5b50600436106101165760003560e01c806370a08231116100a2578063c41a360a11610071578063c41a360a1461031b578063ce325bf81461034b578063d20f7f261461037b578063dd62ed3e14610397578063e7572230146103c757610116565b806370a082311461026d57806395d89b411461029d578063a457c2d7146102bb578063a9059cbb146102eb57610116565b806323b872dd116100e957806323b872dd146101a3578063313ce567146101d357806339509351146101f157806344133b3c1461022157806350ab647e1461023d57610116565b806306fdde031461011b578063095ea7b314610139578063115e85f21461016957806318160ddd14610185575b600080fd5b6101236103f7565b604051610130919061135c565b60405180910390f35b610153600480360381019061014e9190611426565b610489565b6040516101609190611481565b60405180910390f35b610183600480360381019061017e91906115e4565b6104a7565b005b61018d61050b565b60405161019a9190611662565b60405180910390f35b6101bd60048036038101906101b8919061167d565b610515565b6040516101ca9190611481565b60405180910390f35b6101db61060d565b6040516101e891906116ec565b60405180910390f35b61020b60048036038101906102069190611426565b610616565b6040516102189190611481565b60405180910390f35b61023b600480360381019061023691906117ca565b6106c2565b005b61025760048036038101906102529190611869565b6107f1565b6040516102649190611954565b60405180910390f35b61028760048036038101906102829190611976565b610895565b6040516102949190611662565b60405180910390f35b6102a56108dd565b6040516102b2919061135c565b60405180910390f35b6102d560048036038101906102d09190611426565b61096f565b6040516102e29190611481565b60405180910390f35b61030560048036038101906103009190611426565b610a5a565b6040516103129190611481565b60405180910390f35b61033560048036038101906103309190611869565b610a78565b60405161034291906119b2565b60405180910390f35b61036560048036038101906103609190611869565b610ab8565b6040516103729190611a8b565b60405180910390f35b61039560048036038101906103909190611aad565b610b26565b005b6103b160048036038101906103ac9190611aed565b610b71565b6040516103be9190611662565b60405180910390f35b6103e160048036038101906103dc9190611869565b610bf8565b6040516103ee9190611662565b60405180910390f35b60606003805461040690611b5c565b80601f016020809104026020016040519081016040528092919081815260200182805461043290611b5c565b801561047f5780601f106104545761010080835404028352916020019161047f565b820191906000526020600020905b81548152906001019060200180831161046257829003601f168201915b5050505050905090565b600061049d610496610c18565b8484610c20565b6001905092915050565b816005600085815260200190815260200160002060020160006101000a81548173ffffffffffffffffffffffffffffffffffffffff021916908373ffffffffffffffffffffffffffffffffffffffff1602179055506105068382610de9565b505050565b6000600254905090565b6000610522848484610edb565b6000600160008673ffffffffffffffffffffffffffffffffffffffff1673ffffffffffffffffffffffffffffffffffffffff168152602001908152602001600020600061056d610c18565b73ffffffffffffffffffffffffffffffffffffffff1673ffffffffffffffffffffffffffffffffffffffff168152602001908152602001600020549050828110156105ed576040517f08c379a00000000000000000000000000000000000000000000000000000000081526004016105e490611bff565b60405180910390fd5b610601856105f9610c18565b858403610c20565b60019150509392505050565b60006012905090565b60006106b8610623610c18565b848460016000610631610c18565b73ffffffffffffffffffffffffffffffffffffffff1673ffffffffffffffffffffffffffffffffffffffff16815260200190815260200160002060008873ffffffffffffffffffffffffffffffffffffffff1673ffffffffffffffffffffffffffffffffffffffff168152602001908152602001600020546106b39190611c4e565b610c20565b6001905092915050565b60005b83518160ff16146107cf5760056000868152602001908152602001600020600101848260ff16815181106106fc576106fb611ca4565b5b60200260200101519080600181540180825580915050600190039060005260206000200160009091909190916101000a81548173ffffffffffffffffffffffffffffffffffffffff021916908373ffffffffffffffffffffffffffffffffffffffff16021790555060056000868152602001908152602001600020600301838260ff16815181106107905761078f611ca4565b5b60200260200101519080600181540180825580915050600190039060005260206000200160009091909190915055806107c890611cd3565b90506106c5565b8160056000878152602001908152602001600020600401819055505050505050565b60606005600083815260200190815260200160002060010180548060200260200160405190810160405280929190818152602001828054801561088957602002820191906000526020600020905b8160009054906101000a900473ffffffffffffffffffffffffffffffffffffffff1673ffffffffffffffffffffffffffffffffffffffff168152602001906001019080831161083f575b50505050509050919050565b60008060008373ffffffffffffffffffffffffffffffffffffffff1673ffffffffffffffffffffffffffffffffffffffff168152602001908152602001600020549050919050565b6060600480546108ec90611b5c565b80601f016020809104026020016040519081016040528092919081815260200182805461091890611b5c565b80156109655780601f1061093a57610100808354040283529160200191610965565b820191906000526020600020905b81548152906001019060200180831161094857829003601f168201915b5050505050905090565b6000806001600061097e610c18565b73ffffffffffffffffffffffffffffffffffffffff1673ffffffffffffffffffffffffffffffffffffffff16815260200190815260200160002060008573ffffffffffffffffffffffffffffffffffffffff1673ffffffffffffffffffffffffffffffffffffffff16815260200190815260200160002054905082811015610a3b576040517f08c379a0000000000000000000000000000000000000000000000000000000008152600401610a3290611d6e565b60405180910390fd5b610a4f610a46610c18565b85858403610c20565b600191505092915050565b6000610a6e610a67610c18565b8484610edb565b6001905092915050565b60006005600083815260200190815260200160002060020160009054906101000a900473ffffffffffffffffffffffffffffffffffffffff169050919050565b606060056000838152602001908152602001600020600301805480602002602001604051908101604052809291908181526020018280548015610b1a57602002820191906000526020600020905b815481526020019060010190808311610b06575b50505050509050919050565b610b42818366038d7ea4c68000610b3d9190611d8e565b61115a565b8166038d7ea4c68000610b559190611d8e565b60066000828254610b669190611c4e565b925050819055505050565b6000600160008473ffffffffffffffffffffffffffffffffffffffff1673ffffffffffffffffffffffffffffffffffffffff16815260200190815260200160002060008373ffffffffffffffffffffffffffffffffffffffff1673ffffffffffffffffffffffffffffffffffffffff16815260200190815260200160002054905092915050565b600060056000838152602001908152602001600020600401549050919050565b600033905090565b600073ffffffffffffffffffffffffffffffffffffffff168373ffffffffffffffffffffffffffffffffffffffff1603610c8f576040517f08c379a0000000000000000000000000000000000000000000000000000000008152600401610c8690611e5a565b60405180910390fd5b600073ffffffffffffffffffffffffffffffffffffffff168273ffffffffffffffffffffffffffffffffffffffff1603610cfe576040517f08c379a0000000000000000000000000000000000000000000000000000000008152600401610cf590611eec565b60405180910390fd5b80600160008573ffffffffffffffffffffffffffffffffffffffff1673ffffffffffffffffffffffffffffffffffffffff16815260200190815260200160002060008473ffffffffffffffffffffffffffffffffffffffff1673ffffffffffffffffffffffffffffffffffffffff168152602001908152602001600020819055508173ffffffffffffffffffffffffffffffffffffffff168373ffffffffffffffffffffffffffffffffffffffff167f8c5be1e5ebec7d5bd14f71427d1e84f3dd0314c0f7b2291e5b200ac8c7c3b92583604051610ddc9190611662565b60405180910390a3505050565b60005b81518160ff1614610ed657610e65828260ff1681518110610e1057610e0f611ca4565b5b6020026020010151600560008681526020019081526020016000206003018360ff1681548110610e4357610e42611ca4565b5b906000526020600020015466038d7ea4c68000610e609190611d8e565b61115a565b80610e6f90611cd3565b9050600560008481526020019081526020016000206003018160ff1681548110610e9c57610e9b611ca4565b5b906000526020600020015466038d7ea4c68000610eb99190611d8e565b60066000828254610eca9190611c4e565b92505081905550610dec565b505050565b600073ffffffffffffffffffffffffffffffffffffffff168373ffffffffffffffffffffffffffffffffffffffff1603610f4a576040517f08c379a0000000000000000000000000000000000000000000000000000000008152600401610f4190611f7e565b60405180910390fd5b600073ffffffffffffffffffffffffffffffffffffffff168273ffffffffffffffffffffffffffffffffffffffff1603610fb9576040517f08c379a0000000000000000000000000000000000000000000000000000000008152600401610fb090612010565b60405180910390fd5b610fc48383836112b9565b60008060008573ffffffffffffffffffffffffffffffffffffffff1673ffffffffffffffffffffffffffffffffffffffff1681526020019081526020016000205490508181101561104a576040517f08c379a0000000000000000000000000000000000000000000000000000000008152600401611041906120a2565b60405180910390fd5b8181036000808673ffffffffffffffffffffffffffffffffffffffff1673ffffffffffffffffffffffffffffffffffffffff16815260200190815260200160002081905550816000808573ffffffffffffffffffffffffffffffffffffffff1673ffffffffffffffffffffffffffffffffffffffff16815260200190815260200160002060008282546110dd9190611c4e565b925050819055508273ffffffffffffffffffffffffffffffffffffffff168473ffffffffffffffffffffffffffffffffffffffff167fddf252ad1be2c89b69c2b068fc378daa952ba7f163c4a11628f55a4df523b3ef846040516111419190611662565b60405180910390a36111548484846112be565b50505050565b600073ffffffffffffffffffffffffffffffffffffffff168273ffffffffffffffffffffffffffffffffffffffff16036111c9576040517f08c379a00000000000000000000000000000000000000000000000000000000081526004016111c09061210e565b60405180910390fd5b6111d5600083836112b9565b80600260008282546111e79190611c4e565b92505081905550806000808473ffffffffffffffffffffffffffffffffffffffff1673ffffffffffffffffffffffffffffffffffffffff168152602001908152602001600020600082825461123c9190611c4e565b925050819055508173ffffffffffffffffffffffffffffffffffffffff16600073ffffffffffffffffffffffffffffffffffffffff167fddf252ad1be2c89b69c2b068fc378daa952ba7f163c4a11628f55a4df523b3ef836040516112a19190611662565b60405180910390a36112b5600083836112be565b5050565b505050565b505050565b600081519050919050565b600082825260208201905092915050565b60005b838110156112fd5780820151818401526020810190506112e2565b8381111561130c576000848401525b50505050565b6000601f19601f8301169050919050565b600061132e826112c3565b61133881856112ce565b93506113488185602086016112df565b61135181611312565b840191505092915050565b600060208201905081810360008301526113768184611323565b905092915050565b6000604051905090565b600080fd5b600080fd5b600073ffffffffffffffffffffffffffffffffffffffff82169050919050565b60006113bd82611392565b9050919050565b6113cd816113b2565b81146113d857600080fd5b50565b6000813590506113ea816113c4565b92915050565b6000819050919050565b611403816113f0565b811461140e57600080fd5b50565b600081359050611420816113fa565b92915050565b6000806040838503121561143d5761143c611388565b5b600061144b858286016113db565b925050602061145c85828601611411565b9150509250929050565b60008115159050919050565b61147b81611466565b82525050565b60006020820190506114966000830184611472565b92915050565b600080fd5b7f4e487b7100000000000000000000000000000000000000000000000000000000600052604160045260246000fd5b6114d982611312565b810181811067ffffffffffffffff821117156114f8576114f76114a1565b5b80604052505050565b600061150b61137e565b905061151782826114d0565b919050565b600067ffffffffffffffff821115611537576115366114a1565b5b602082029050602081019050919050565b600080fd5b600061156061155b8461151c565b611501565b9050808382526020820190506020840283018581111561158357611582611548565b5b835b818110156115ac578061159888826113db565b845260208401935050602081019050611585565b5050509392505050565b600082601f8301126115cb576115ca61149c565b5b81356115db84826020860161154d565b91505092915050565b6000806000606084860312156115fd576115fc611388565b5b600061160b86828701611411565b935050602061161c868287016113db565b925050604084013567ffffffffffffffff81111561163d5761163c61138d565b5b611649868287016115b6565b9150509250925092565b61165c816113f0565b82525050565b60006020820190506116776000830184611653565b92915050565b60008060006060848603121561169657611695611388565b5b60006116a4868287016113db565b93505060206116b5868287016113db565b92505060406116c686828701611411565b9150509250925092565b600060ff82169050919050565b6116e6816116d0565b82525050565b600060208201905061170160008301846116dd565b92915050565b600067ffffffffffffffff821115611722576117216114a1565b5b602082029050602081019050919050565b600061174661174184611707565b611501565b9050808382526020820190506020840283018581111561176957611768611548565b5b835b81811015611792578061177e8882611411565b84526020840193505060208101905061176b565b5050509392505050565b600082601f8301126117b1576117b061149c565b5b81356117c1848260208601611733565b91505092915050565b600080600080608085870312156117e4576117e3611388565b5b60006117f287828801611411565b945050602085013567ffffffffffffffff8111156118135761181261138d565b5b61181f878288016115b6565b935050604085013567ffffffffffffffff8111156118405761183f61138d565b5b61184c8782880161179c565b925050606061185d87828801611411565b91505092959194509250565b60006020828403121561187f5761187e611388565b5b600061188d84828501611411565b91505092915050565b600081519050919050565b600082825260208201905092915050565b6000819050602082019050919050565b6118cb816113b2565b82525050565b60006118dd83836118c2565b60208301905092915050565b6000602082019050919050565b600061190182611896565b61190b81856118a1565b9350611916836118b2565b8060005b8381101561194757815161192e88826118d1565b9750611939836118e9565b92505060018101905061191a565b5085935050505092915050565b6000602082019050818103600083015261196e81846118f6565b905092915050565b60006020828403121561198c5761198b611388565b5b600061199a848285016113db565b91505092915050565b6119ac816113b2565b82525050565b60006020820190506119c760008301846119a3565b92915050565b600081519050919050565b600082825260208201905092915050565b6000819050602082019050919050565b611a02816113f0565b82525050565b6000611a1483836119f9565b60208301905092915050565b6000602082019050919050565b6000611a38826119cd565b611a4281856119d8565b9350611a4d836119e9565b8060005b83811015611a7e578151611a658882611a08565b9750611a7083611a20565b925050600181019050611a51565b5085935050505092915050565b60006020820190508181036000830152611aa58184611a2d565b905092915050565b60008060408385031215611ac457611ac3611388565b5b6000611ad285828601611411565b9250506020611ae3858286016113db565b9150509250929050565b60008060408385031215611b0457611b03611388565b5b6000611b12858286016113db565b9250506020611b23858286016113db565b9150509250929050565b7f4e487b7100000000000000000000000000000000000000000000000000000000600052602260045260246000fd5b60006002820490506001821680611b7457607f821691505b602082108103611b8757611b86611b2d565b5b50919050565b7f45524332303a207472616e7366657220616d6f756e742065786365656473206160008201527f6c6c6f77616e6365000000000000000000000000000000000000000000000000602082015250565b6000611be96028836112ce565b9150611bf482611b8d565b604082019050919050565b60006020820190508181036000830152611c1881611bdc565b9050919050565b7f4e487b7100000000000000000000000000000000000000000000000000000000600052601160045260246000fd5b6000611c59826113f0565b9150611c64836113f0565b9250827fffffffffffffffffffffffffffffffffffffffffffffffffffffffffffffffff03821115611c9957611c98611c1f565b5b828201905092915050565b7f4e487b7100000000000000000000000000000000000000000000000000000000600052603260045260246000fd5b6000611cde826116d0565b915060ff8203611cf157611cf0611c1f565b5b600182019050919050565b7f45524332303a2064656372656173656420616c6c6f77616e63652062656c6f7760008201527f207a65726f000000000000000000000000000000000000000000000000000000602082015250565b6000611d586025836112ce565b9150611d6382611cfc565b604082019050919050565b60006020820190508181036000830152611d8781611d4b565b9050919050565b6000611d99826113f0565b9150611da4836113f0565b9250817fffffffffffffffffffffffffffffffffffffffffffffffffffffffffffffffff0483118215151615611ddd57611ddc611c1f565b5b828202905092915050565b7f45524332303a20617070726f76652066726f6d20746865207a65726f2061646460008201527f7265737300000000000000000000000000000000000000000000000000000000602082015250565b6000611e446024836112ce565b9150611e4f82611de8565b604082019050919050565b60006020820190508181036000830152611e7381611e37565b9050919050565b7f45524332303a20617070726f766520746f20746865207a65726f20616464726560008201527f7373000000000000000000000000000000000000000000000000000000000000602082015250565b6000611ed66022836112ce565b9150611ee182611e7a565b604082019050919050565b60006020820190508181036000830152611f0581611ec9565b9050919050565b7f45524332303a207472616e736665722066726f6d20746865207a65726f20616460008201527f6472657373000000000000000000000000000000000000000000000000000000602082015250565b6000611f686025836112ce565b9150611f7382611f0c565b604082019050919050565b60006020820190508181036000830152611f9781611f5b565b9050919050565b7f45524332303a207472616e7366657220746f20746865207a65726f206164647260008201527f6573730000000000000000000000000000000000000000000000000000000000602082015250565b6000611ffa6023836112ce565b915061200582611f9e565b604082019050919050565b6000602082019050818103600083015261202981611fed565b9050919050565b7f45524332303a207472616e7366657220616d6f756e742065786365656473206260008201527f616c616e63650000000000000000000000000000000000000000000000000000602082015250565b600061208c6026836112ce565b915061209782612030565b604082019050919050565b600060208201905081810360008301526120bb8161207f565b9050919050565b7f45524332303a206d696e7420746f20746865207a65726f206164647265737300600082015250565b60006120f8601f836112ce565b9150612103826120c2565b602082019050919050565b60006020820190508181036000830152612127816120eb565b905091905056fea264697066735822122067078447a628a649678b030c04e376091b5b35311f4901ac60eb57b506b0c3d064736f6c634300080d0033",
  "immutableReferences": {},
  "source": "pragma solidity ^0.8.3;\r\n\r\nimport '../client/node_modules/openzeppelin-solidity/contracts/token/ERC20/ERC20.sol';\r\n\r\ncontract SeverStore is ERC20{\r\n\r\n    constructor() ERC20(\"Thread\", \"THRe\") {\r\n        //_mint(msg.sender, 10*10**18);\r\n    }\r\n    struct playTeam {\r\n        string title;\r\n        address[] name;\r\n        address owner;\r\n        uint[] stake;\r\n        uint price;\r\n    }\r\n    mapping(uint => playTeam) history;\r\n    uint countMint = 0;\r\n\r\n    function putBlock(\r\n        uint _team, \r\n        address[] memory _ptcp, \r\n        uint[] memory _stake, \r\n        uint _price)\r\n    external\r\n    {\r\n        uint8 iterA = 0;\r\n        while(iterA != _ptcp.length)\r\n        {\r\n            history[_team].name.push(_ptcp[iterA]);\r\n            history[_team].stake.push(_stake[iterA]);\r\n            ++iterA;\r\n        }\r\n        history[_team].price = _price;\r\n    }\r\n    function minting(uint _team, address[] memory _ptcp)\r\n    internal\r\n    {//_stake = at 0.001\r\n        uint8 iterA = 0;\r\n        while(iterA != _ptcp.length)\r\n        {\r\n            _mint(_ptcp[iterA], 1*10**15*history[_team].stake[iterA]);\r\n            ++iterA;\r\n            countMint += 1*10**15*history[_team].stake[iterA];\r\n        }\r\n    }\r\n    function retrieve(uint _value, address _editor)\r\n    external\r\n    {\r\n        _mint(_editor, 1*10**15*_value);\r\n        countMint += 1*10**15*_value;\r\n    }\r\n    function purchase(\r\n        uint _team, \r\n        address _buyer, \r\n        address[] memory _ptcp)\r\n    external\r\n    {\r\n        history[_team].owner = _buyer;\r\n        minting(_team, _ptcp);\r\n    }\r\n    function getPtcp(uint _team) public view returns(address[] memory){\r\n        return history[_team].name;\r\n    }\r\n    function getStake(uint _team) public view returns(uint[] memory){\r\n        return history[_team].stake;\r\n    }\r\n    function getOwner(uint _team) public view returns(address){\r\n        return history[_team].owner;\r\n    }\r\n    function getPrice(uint _team) public view returns(uint){\r\n        return history[_team].price;\r\n    }\r\n}\r\n\r\n//[\"0x5B38Da6a701c568545dCfcB03FcB875f56beddC4\", \"0xAb8483F64d9C6d1EcF9b849Ae677dD3315835cb2\"]\r\n//[\"hasha\", \"hashb\"]",
  "sourcePath": "D:\\workspace\\BBwork_block\\pogre\\trufflebox\\contracts\\SeverStore.sol",
  "compiler": {
    "name": "solc",
    "version": "0.8.13+commit.abaa5c0e.Emscripten.clang"
  },
  "schemaVersion": "3.4.2",
  "updatedAt": "2022-03-18T03:50:45.020Z",
  "devdoc": {
    "kind": "dev",
    "methods": {
      "allowance(address,address)": {
        "details": "See {IERC20-allowance}."
      },
      "approve(address,uint256)": {
        "details": "See {IERC20-approve}. Requirements: - `spender` cannot be the zero address."
      },
      "balanceOf(address)": {
        "details": "See {IERC20-balanceOf}."
      },
      "decimals()": {
        "details": "Returns the number of decimals used to get its user representation. For example, if `decimals` equals `2`, a balance of `505` tokens should be displayed to a user as `5.05` (`505 / 10 ** 2`). Tokens usually opt for a value of 18, imitating the relationship between Ether and Wei. This is the value {ERC20} uses, unless this function is overridden; NOTE: This information is only used for _display_ purposes: it in no way affects any of the arithmetic of the contract, including {IERC20-balanceOf} and {IERC20-transfer}."
      },
      "decreaseAllowance(address,uint256)": {
        "details": "Atomically decreases the allowance granted to `spender` by the caller. This is an alternative to {approve} that can be used as a mitigation for problems described in {IERC20-approve}. Emits an {Approval} event indicating the updated allowance. Requirements: - `spender` cannot be the zero address. - `spender` must have allowance for the caller of at least `subtractedValue`."
      },
      "increaseAllowance(address,uint256)": {
        "details": "Atomically increases the allowance granted to `spender` by the caller. This is an alternative to {approve} that can be used as a mitigation for problems described in {IERC20-approve}. Emits an {Approval} event indicating the updated allowance. Requirements: - `spender` cannot be the zero address."
      },
      "name()": {
        "details": "Returns the name of the token."
      },
      "symbol()": {
        "details": "Returns the symbol of the token, usually a shorter version of the name."
      },
      "totalSupply()": {
        "details": "See {IERC20-totalSupply}."
      },
      "transfer(address,uint256)": {
        "details": "See {IERC20-transfer}. Requirements: - `recipient` cannot be the zero address. - the caller must have a balance of at least `amount`."
      },
      "transferFrom(address,address,uint256)": {
        "details": "See {IERC20-transferFrom}. Emits an {Approval} event indicating the updated allowance. This is not required by the EIP. See the note at the beginning of {ERC20}. Requirements: - `sender` and `recipient` cannot be the zero address. - `sender` must have a balance of at least `amount`. - the caller must have allowance for ``sender``'s tokens of at least `amount`."
      }
    },
    "version": 1
  },
  "userdoc": {
    "kind": "user",
    "methods": {},
    "version": 1
  }
}