{
  "contractName": "SeverStore",
  "abi": [
    {
      "inputs": [],
      "stateMutability": "nonpayable",
      "type": "constructor"
    },
    {
      "anonymous": false,
      "inputs": [
        {
          "indexed": true,
          "internalType": "address",
          "name": "owner",
          "type": "address"
        },
        {
          "indexed": true,
          "internalType": "address",
          "name": "spender",
          "type": "address"
        },
        {
          "indexed": false,
          "internalType": "uint256",
          "name": "value",
          "type": "uint256"
        }
      ],
      "name": "Approval",
      "type": "event"
    },
    {
      "anonymous": false,
      "inputs": [
        {
          "indexed": true,
          "internalType": "address",
          "name": "from",
          "type": "address"
        },
        {
          "indexed": true,
          "internalType": "address",
          "name": "to",
          "type": "address"
        },
        {
          "indexed": false,
          "internalType": "uint256",
          "name": "value",
          "type": "uint256"
        }
      ],
      "name": "Transfer",
      "type": "event"
    },
    {
      "inputs": [
        {
          "internalType": "address",
          "name": "owner",
          "type": "address"
        },
        {
          "internalType": "address",
          "name": "spender",
          "type": "address"
        }
      ],
      "name": "allowance",
      "outputs": [
        {
          "internalType": "uint256",
          "name": "",
          "type": "uint256"
        }
      ],
      "stateMutability": "view",
      "type": "function",
      "constant": true
    },
    {
      "inputs": [
        {
          "internalType": "address",
          "name": "spender",
          "type": "address"
        },
        {
          "internalType": "uint256",
          "name": "amount",
          "type": "uint256"
        }
      ],
      "name": "approve",
      "outputs": [
        {
          "internalType": "bool",
          "name": "",
          "type": "bool"
        }
      ],
      "stateMutability": "nonpayable",
      "type": "function"
    },
    {
      "inputs": [
        {
          "internalType": "address",
          "name": "account",
          "type": "address"
        }
      ],
      "name": "balanceOf",
      "outputs": [
        {
          "internalType": "uint256",
          "name": "",
          "type": "uint256"
        }
      ],
      "stateMutability": "view",
      "type": "function",
      "constant": true
    },
    {
      "inputs": [],
      "name": "decimals",
      "outputs": [
        {
          "internalType": "uint8",
          "name": "",
          "type": "uint8"
        }
      ],
      "stateMutability": "view",
      "type": "function",
      "constant": true
    },
    {
      "inputs": [
        {
          "internalType": "address",
          "name": "spender",
          "type": "address"
        },
        {
          "internalType": "uint256",
          "name": "subtractedValue",
          "type": "uint256"
        }
      ],
      "name": "decreaseAllowance",
      "outputs": [
        {
          "internalType": "bool",
          "name": "",
          "type": "bool"
        }
      ],
      "stateMutability": "nonpayable",
      "type": "function"
    },
    {
      "inputs": [
        {
          "internalType": "address",
          "name": "spender",
          "type": "address"
        },
        {
          "internalType": "uint256",
          "name": "addedValue",
          "type": "uint256"
        }
      ],
      "name": "increaseAllowance",
      "outputs": [
        {
          "internalType": "bool",
          "name": "",
          "type": "bool"
        }
      ],
      "stateMutability": "nonpayable",
      "type": "function"
    },
    {
      "inputs": [],
      "name": "name",
      "outputs": [
        {
          "internalType": "string",
          "name": "",
          "type": "string"
        }
      ],
      "stateMutability": "view",
      "type": "function",
      "constant": true
    },
    {
      "inputs": [],
      "name": "symbol",
      "outputs": [
        {
          "internalType": "string",
          "name": "",
          "type": "string"
        }
      ],
      "stateMutability": "view",
      "type": "function",
      "constant": true
    },
    {
      "inputs": [],
      "name": "totalSupply",
      "outputs": [
        {
          "internalType": "uint256",
          "name": "",
          "type": "uint256"
        }
      ],
      "stateMutability": "view",
      "type": "function",
      "constant": true
    },
    {
      "inputs": [
        {
          "internalType": "address",
          "name": "recipient",
          "type": "address"
        },
        {
          "internalType": "uint256",
          "name": "amount",
          "type": "uint256"
        }
      ],
      "name": "transfer",
      "outputs": [
        {
          "internalType": "bool",
          "name": "",
          "type": "bool"
        }
      ],
      "stateMutability": "nonpayable",
      "type": "function"
    },
    {
      "inputs": [
        {
          "internalType": "address",
          "name": "sender",
          "type": "address"
        },
        {
          "internalType": "address",
          "name": "recipient",
          "type": "address"
        },
        {
          "internalType": "uint256",
          "name": "amount",
          "type": "uint256"
        }
      ],
      "name": "transferFrom",
      "outputs": [
        {
          "internalType": "bool",
          "name": "",
          "type": "bool"
        }
      ],
      "stateMutability": "nonpayable",
      "type": "function"
    },
    {
      "inputs": [
        {
          "internalType": "uint256",
          "name": "_team",
          "type": "uint256"
        },
        {
          "internalType": "address[]",
          "name": "_ptcp",
          "type": "address[]"
        },
        {
          "internalType": "string[]",
          "name": "_hash",
          "type": "string[]"
        }
      ],
      "name": "putBlock",
      "outputs": [],
      "stateMutability": "nonpayable",
      "type": "function"
    },
    {
      "inputs": [
        {
          "internalType": "uint256",
          "name": "_origin",
          "type": "uint256"
        }
      ],
      "name": "getname",
      "outputs": [
        {
          "internalType": "address",
          "name": "",
          "type": "address"
        }
      ],
      "stateMutability": "view",
      "type": "function",
      "constant": true
    },
    {
      "inputs": [
        {
          "internalType": "uint256",
          "name": "_origin",
          "type": "uint256"
        }
      ],
      "name": "gethash",
      "outputs": [
        {
          "internalType": "string",
          "name": "",
          "type": "string"
        }
      ],
      "stateMutability": "view",
      "type": "function",
      "constant": true
    },
    {
      "inputs": [],
      "name": "connection",
      "outputs": [
        {
          "internalType": "string",
          "name": "",
          "type": "string"
        }
      ],
      "stateMutability": "view",
      "type": "function",
      "constant": true
    }
  ],
  "bytecode": "0x608060405260006006556040518060400160405280600881526020017f6661726577656c6c0000000000000000000000000000000000000000000000008152506007908051906020019062000056929190620002a8565b503480156200006457600080fd5b506040518060400160405280600481526020017f476f6c64000000000000000000000000000000000000000000000000000000008152506040518060400160405280600381526020017f474c4400000000000000000000000000000000000000000000000000000000008152508160039080519060200190620000e9929190620002a8565b50806004908051906020019062000102929190620002a8565b5050506200011f33678ac7230489e800006200012560201b60201c565b62000504565b600073ffffffffffffffffffffffffffffffffffffffff168273ffffffffffffffffffffffffffffffffffffffff16141562000198576040517f08c379a00000000000000000000000000000000000000000000000000000000081526004016200018f90620003b9565b60405180910390fd5b620001ac600083836200029e60201b60201c565b8060026000828254620001c0919062000414565b92505081905550806000808473ffffffffffffffffffffffffffffffffffffffff1673ffffffffffffffffffffffffffffffffffffffff168152602001908152602001600020600082825462000217919062000414565b925050819055508173ffffffffffffffffffffffffffffffffffffffff16600073ffffffffffffffffffffffffffffffffffffffff167fddf252ad1be2c89b69c2b068fc378daa952ba7f163c4a11628f55a4df523b3ef836040516200027e919062000482565b60405180910390a36200029a60008383620002a360201b60201c565b5050565b505050565b505050565b828054620002b690620004ce565b90600052602060002090601f016020900481019282620002da576000855562000326565b82601f10620002f557805160ff191683800117855562000326565b8280016001018555821562000326579182015b828111156200032557825182559160200191906001019062000308565b5b50905062000335919062000339565b5090565b5b80821115620003545760008160009055506001016200033a565b5090565b600082825260208201905092915050565b7f45524332303a206d696e7420746f20746865207a65726f206164647265737300600082015250565b6000620003a1601f8362000358565b9150620003ae8262000369565b602082019050919050565b60006020820190508181036000830152620003d48162000392565b9050919050565b6000819050919050565b7f4e487b7100000000000000000000000000000000000000000000000000000000600052601160045260246000fd5b60006200042182620003db565b91506200042e83620003db565b9250827fffffffffffffffffffffffffffffffffffffffffffffffffffffffffffffffff03821115620004665762000465620003e5565b5b828201905092915050565b6200047c81620003db565b82525050565b600060208201905062000499600083018462000471565b92915050565b7f4e487b7100000000000000000000000000000000000000000000000000000000600052602260045260246000fd5b60006002820490506001821680620004e757607f821691505b60208210811415620004fe57620004fd6200049f565b5b50919050565b611e4b80620005146000396000f3fe608060405234801561001057600080fd5b50600436106100f55760003560e01c806370a0823111610097578063c3769ebb11610066578063c3769ebb146102c2578063dd62ed3e146102de578063fd19016c1461030e578063fdb9da931461032c576100f5565b806370a082311461021457806395d89b4114610244578063a457c2d714610262578063a9059cbb14610292576100f5565b806318160ddd116100d357806318160ddd1461017857806323b872dd14610196578063313ce567146101c657806339509351146101e4576100f5565b80630202ace1146100fa57806306fdde031461012a578063095ea7b314610148575b600080fd5b610114600480360381019061010f91906111b3565b61035c565b6040516101219190611221565b60405180910390f35b6101326103b9565b60405161013f91906112d5565b60405180910390f35b610162600480360381019061015d9190611323565b61044b565b60405161016f919061137e565b60405180910390f35b610180610469565b60405161018d91906113a8565b60405180910390f35b6101b060048036038101906101ab91906113c3565b610473565b6040516101bd919061137e565b60405180910390f35b6101ce61056b565b6040516101db9190611432565b60405180910390f35b6101fe60048036038101906101f99190611323565b610574565b60405161020b919061137e565b60405180910390f35b61022e6004803603810190610229919061144d565b610620565b60405161023b91906113a8565b60405180910390f35b61024c610668565b60405161025991906112d5565b60405180910390f35b61027c60048036038101906102779190611323565b6106fa565b604051610289919061137e565b60405180910390f35b6102ac60048036038101906102a79190611323565b6107e5565b6040516102b9919061137e565b60405180910390f35b6102dc60048036038101906102d79190611758565b610803565b005b6102f860048036038101906102f391906117e3565b610947565b60405161030591906113a8565b60405180910390f35b6103166109ce565b60405161032391906112d5565b60405180910390f35b610346600480360381019061034191906111b3565b610a60565b60405161035391906112d5565b60405180910390f35b60006005600083815260200190815260200160002060000160008154811061038757610386611823565b5b9060005260206000200160009054906101000a900473ffffffffffffffffffffffffffffffffffffffff169050919050565b6060600380546103c890611881565b80601f01602080910402602001604051908101604052809291908181526020018280546103f490611881565b80156104415780601f1061041657610100808354040283529160200191610441565b820191906000526020600020905b81548152906001019060200180831161042457829003601f168201915b5050505050905090565b600061045f610458610b08565b8484610b10565b6001905092915050565b6000600254905090565b6000610480848484610cdb565b6000600160008673ffffffffffffffffffffffffffffffffffffffff1673ffffffffffffffffffffffffffffffffffffffff16815260200190815260200160002060006104cb610b08565b73ffffffffffffffffffffffffffffffffffffffff1673ffffffffffffffffffffffffffffffffffffffff1681526020019081526020016000205490508281101561054b576040517f08c379a000000000000000000000000000000000000000000000000000000000815260040161054290611925565b60405180910390fd5b61055f85610557610b08565b858403610b10565b60019150509392505050565b60006012905090565b6000610616610581610b08565b84846001600061058f610b08565b73ffffffffffffffffffffffffffffffffffffffff1673ffffffffffffffffffffffffffffffffffffffff16815260200190815260200160002060008873ffffffffffffffffffffffffffffffffffffffff1673ffffffffffffffffffffffffffffffffffffffff168152602001908152602001600020546106119190611974565b610b10565b6001905092915050565b60008060008373ffffffffffffffffffffffffffffffffffffffff1673ffffffffffffffffffffffffffffffffffffffff168152602001908152602001600020549050919050565b60606004805461067790611881565b80601f01602080910402602001604051908101604052809291908181526020018280546106a390611881565b80156106f05780601f106106c5576101008083540402835291602001916106f0565b820191906000526020600020905b8154815290600101906020018083116106d357829003601f168201915b5050505050905090565b60008060016000610709610b08565b73ffffffffffffffffffffffffffffffffffffffff1673ffffffffffffffffffffffffffffffffffffffff16815260200190815260200160002060008573ffffffffffffffffffffffffffffffffffffffff1673ffffffffffffffffffffffffffffffffffffffff168152602001908152602001600020549050828110156107c6576040517f08c379a00000000000000000000000000000000000000000000000000000000081526004016107bd90611a3c565b60405180910390fd5b6107da6107d1610b08565b85858403610b10565b600191505092915050565b60006107f96107f2610b08565b8484610cdb565b6001905092915050565b60005b82518160ff16146109415760056000858152602001908152602001600020600001838260ff168151811061083d5761083c611823565b5b60200260200101519080600181540180825580915050600190039060005260206000200160009091909190916101000a81548173ffffffffffffffffffffffffffffffffffffffff021916908373ffffffffffffffffffffffffffffffffffffffff160217905550816000815181106108b9576108b8611823565b5b60200260200101516005600086815260200190815260200160002060010190805190602001906108ea9291906110c6565b5061091a838260ff168151811061090457610903611823565b5b6020026020010151670de0b6b3a7640000610f5c565b8061092490611a5c565b905060066000815461093590611a86565b91905081905550610806565b50505050565b6000600160008473ffffffffffffffffffffffffffffffffffffffff1673ffffffffffffffffffffffffffffffffffffffff16815260200190815260200160002060008373ffffffffffffffffffffffffffffffffffffffff1673ffffffffffffffffffffffffffffffffffffffff16815260200190815260200160002054905092915050565b6060600780546109dd90611881565b80601f0160208091040260200160405190810160405280929190818152602001828054610a0990611881565b8015610a565780601f10610a2b57610100808354040283529160200191610a56565b820191906000526020600020905b815481529060010190602001808311610a3957829003601f168201915b5050505050905090565b6060600560008381526020019081526020016000206001018054610a8390611881565b80601f0160208091040260200160405190810160405280929190818152602001828054610aaf90611881565b8015610afc5780601f10610ad157610100808354040283529160200191610afc565b820191906000526020600020905b815481529060010190602001808311610adf57829003601f168201915b50505050509050919050565b600033905090565b600073ffffffffffffffffffffffffffffffffffffffff168373ffffffffffffffffffffffffffffffffffffffff161415610b80576040517f08c379a0000000000000000000000000000000000000000000000000000000008152600401610b7790611b41565b60405180910390fd5b600073ffffffffffffffffffffffffffffffffffffffff168273ffffffffffffffffffffffffffffffffffffffff161415610bf0576040517f08c379a0000000000000000000000000000000000000000000000000000000008152600401610be790611bd3565b60405180910390fd5b80600160008573ffffffffffffffffffffffffffffffffffffffff1673ffffffffffffffffffffffffffffffffffffffff16815260200190815260200160002060008473ffffffffffffffffffffffffffffffffffffffff1673ffffffffffffffffffffffffffffffffffffffff168152602001908152602001600020819055508173ffffffffffffffffffffffffffffffffffffffff168373ffffffffffffffffffffffffffffffffffffffff167f8c5be1e5ebec7d5bd14f71427d1e84f3dd0314c0f7b2291e5b200ac8c7c3b92583604051610cce91906113a8565b60405180910390a3505050565b600073ffffffffffffffffffffffffffffffffffffffff168373ffffffffffffffffffffffffffffffffffffffff161415610d4b576040517f08c379a0000000000000000000000000000000000000000000000000000000008152600401610d4290611c65565b60405180910390fd5b600073ffffffffffffffffffffffffffffffffffffffff168273ffffffffffffffffffffffffffffffffffffffff161415610dbb576040517f08c379a0000000000000000000000000000000000000000000000000000000008152600401610db290611cf7565b60405180910390fd5b610dc68383836110bc565b60008060008573ffffffffffffffffffffffffffffffffffffffff1673ffffffffffffffffffffffffffffffffffffffff16815260200190815260200160002054905081811015610e4c576040517f08c379a0000000000000000000000000000000000000000000000000000000008152600401610e4390611d89565b60405180910390fd5b8181036000808673ffffffffffffffffffffffffffffffffffffffff1673ffffffffffffffffffffffffffffffffffffffff16815260200190815260200160002081905550816000808573ffffffffffffffffffffffffffffffffffffffff1673ffffffffffffffffffffffffffffffffffffffff1681526020019081526020016000206000828254610edf9190611974565b925050819055508273ffffffffffffffffffffffffffffffffffffffff168473ffffffffffffffffffffffffffffffffffffffff167fddf252ad1be2c89b69c2b068fc378daa952ba7f163c4a11628f55a4df523b3ef84604051610f4391906113a8565b60405180910390a3610f568484846110c1565b50505050565b600073ffffffffffffffffffffffffffffffffffffffff168273ffffffffffffffffffffffffffffffffffffffff161415610fcc576040517f08c379a0000000000000000000000000000000000000000000000000000000008152600401610fc390611df5565b60405180910390fd5b610fd8600083836110bc565b8060026000828254610fea9190611974565b92505081905550806000808473ffffffffffffffffffffffffffffffffffffffff1673ffffffffffffffffffffffffffffffffffffffff168152602001908152602001600020600082825461103f9190611974565b925050819055508173ffffffffffffffffffffffffffffffffffffffff16600073ffffffffffffffffffffffffffffffffffffffff167fddf252ad1be2c89b69c2b068fc378daa952ba7f163c4a11628f55a4df523b3ef836040516110a491906113a8565b60405180910390a36110b8600083836110c1565b5050565b505050565b505050565b8280546110d290611881565b90600052602060002090601f0160209004810192826110f4576000855561113b565b82601f1061110d57805160ff191683800117855561113b565b8280016001018555821561113b579182015b8281111561113a57825182559160200191906001019061111f565b5b509050611148919061114c565b5090565b5b8082111561116557600081600090555060010161114d565b5090565b6000604051905090565b600080fd5b600080fd5b6000819050919050565b6111908161117d565b811461119b57600080fd5b50565b6000813590506111ad81611187565b92915050565b6000602082840312156111c9576111c8611173565b5b60006111d78482850161119e565b91505092915050565b600073ffffffffffffffffffffffffffffffffffffffff82169050919050565b600061120b826111e0565b9050919050565b61121b81611200565b82525050565b60006020820190506112366000830184611212565b92915050565b600081519050919050565b600082825260208201905092915050565b60005b8381101561127657808201518184015260208101905061125b565b83811115611285576000848401525b50505050565b6000601f19601f8301169050919050565b60006112a78261123c565b6112b18185611247565b93506112c1818560208601611258565b6112ca8161128b565b840191505092915050565b600060208201905081810360008301526112ef818461129c565b905092915050565b61130081611200565b811461130b57600080fd5b50565b60008135905061131d816112f7565b92915050565b6000806040838503121561133a57611339611173565b5b60006113488582860161130e565b92505060206113598582860161119e565b9150509250929050565b60008115159050919050565b61137881611363565b82525050565b6000602082019050611393600083018461136f565b92915050565b6113a28161117d565b82525050565b60006020820190506113bd6000830184611399565b92915050565b6000806000606084860312156113dc576113db611173565b5b60006113ea8682870161130e565b93505060206113fb8682870161130e565b925050604061140c8682870161119e565b9150509250925092565b600060ff82169050919050565b61142c81611416565b82525050565b60006020820190506114476000830184611423565b92915050565b60006020828403121561146357611462611173565b5b60006114718482850161130e565b91505092915050565b600080fd5b7f4e487b7100000000000000000000000000000000000000000000000000000000600052604160045260246000fd5b6114b78261128b565b810181811067ffffffffffffffff821117156114d6576114d561147f565b5b80604052505050565b60006114e9611169565b90506114f582826114ae565b919050565b600067ffffffffffffffff8211156115155761151461147f565b5b602082029050602081019050919050565b600080fd5b600061153e611539846114fa565b6114df565b9050808382526020820190506020840283018581111561156157611560611526565b5b835b8181101561158a5780611576888261130e565b845260208401935050602081019050611563565b5050509392505050565b600082601f8301126115a9576115a861147a565b5b81356115b984826020860161152b565b91505092915050565b600067ffffffffffffffff8211156115dd576115dc61147f565b5b602082029050602081019050919050565b600080fd5b600067ffffffffffffffff82111561160e5761160d61147f565b5b6116178261128b565b9050602081019050919050565b82818337600083830152505050565b6000611646611641846115f3565b6114df565b905082815260208101848484011115611662576116616115ee565b5b61166d848285611624565b509392505050565b600082601f83011261168a5761168961147a565b5b813561169a848260208601611633565b91505092915050565b60006116b66116b1846115c2565b6114df565b905080838252602082019050602084028301858111156116d9576116d8611526565b5b835b8181101561172057803567ffffffffffffffff8111156116fe576116fd61147a565b5b80860161170b8982611675565b855260208501945050506020810190506116db565b5050509392505050565b600082601f83011261173f5761173e61147a565b5b813561174f8482602086016116a3565b91505092915050565b60008060006060848603121561177157611770611173565b5b600061177f8682870161119e565b935050602084013567ffffffffffffffff8111156117a05761179f611178565b5b6117ac86828701611594565b925050604084013567ffffffffffffffff8111156117cd576117cc611178565b5b6117d98682870161172a565b9150509250925092565b600080604083850312156117fa576117f9611173565b5b60006118088582860161130e565b92505060206118198582860161130e565b9150509250929050565b7f4e487b7100000000000000000000000000000000000000000000000000000000600052603260045260246000fd5b7f4e487b7100000000000000000000000000000000000000000000000000000000600052602260045260246000fd5b6000600282049050600182168061189957607f821691505b602082108114156118ad576118ac611852565b5b50919050565b7f45524332303a207472616e7366657220616d6f756e742065786365656473206160008201527f6c6c6f77616e6365000000000000000000000000000000000000000000000000602082015250565b600061190f602883611247565b915061191a826118b3565b604082019050919050565b6000602082019050818103600083015261193e81611902565b9050919050565b7f4e487b7100000000000000000000000000000000000000000000000000000000600052601160045260246000fd5b600061197f8261117d565b915061198a8361117d565b9250827fffffffffffffffffffffffffffffffffffffffffffffffffffffffffffffffff038211156119bf576119be611945565b5b828201905092915050565b7f45524332303a2064656372656173656420616c6c6f77616e63652062656c6f7760008201527f207a65726f000000000000000000000000000000000000000000000000000000602082015250565b6000611a26602583611247565b9150611a31826119ca565b604082019050919050565b60006020820190508181036000830152611a5581611a19565b9050919050565b6000611a6782611416565b915060ff821415611a7b57611a7a611945565b5b600182019050919050565b6000611a918261117d565b91507fffffffffffffffffffffffffffffffffffffffffffffffffffffffffffffffff821415611ac457611ac3611945565b5b600182019050919050565b7f45524332303a20617070726f76652066726f6d20746865207a65726f2061646460008201527f7265737300000000000000000000000000000000000000000000000000000000602082015250565b6000611b2b602483611247565b9150611b3682611acf565b604082019050919050565b60006020820190508181036000830152611b5a81611b1e565b9050919050565b7f45524332303a20617070726f766520746f20746865207a65726f20616464726560008201527f7373000000000000000000000000000000000000000000000000000000000000602082015250565b6000611bbd602283611247565b9150611bc882611b61565b604082019050919050565b60006020820190508181036000830152611bec81611bb0565b9050919050565b7f45524332303a207472616e736665722066726f6d20746865207a65726f20616460008201527f6472657373000000000000000000000000000000000000000000000000000000602082015250565b6000611c4f602583611247565b9150611c5a82611bf3565b604082019050919050565b60006020820190508181036000830152611c7e81611c42565b9050919050565b7f45524332303a207472616e7366657220746f20746865207a65726f206164647260008201527f6573730000000000000000000000000000000000000000000000000000000000602082015250565b6000611ce1602383611247565b9150611cec82611c85565b604082019050919050565b60006020820190508181036000830152611d1081611cd4565b9050919050565b7f45524332303a207472616e7366657220616d6f756e742065786365656473206260008201527f616c616e63650000000000000000000000000000000000000000000000000000602082015250565b6000611d73602683611247565b9150611d7e82611d17565b604082019050919050565b60006020820190508181036000830152611da281611d66565b9050919050565b7f45524332303a206d696e7420746f20746865207a65726f206164647265737300600082015250565b6000611ddf601f83611247565b9150611dea82611da9565b602082019050919050565b60006020820190508181036000830152611e0e81611dd2565b905091905056fea264697066735822122047502e3522985802834a89958acd4610486a5ce98a3e5a2e6e8fbf23e2383a3364736f6c634300080b0033",
  "immutableReferences": {},
  "source": "pragma solidity ^0.8.3;\r\n\r\nimport '../client/node_modules/openzeppelin-solidity/contracts/token/ERC20/ERC20.sol';\r\n\r\ncontract SeverStore is ERC20{\r\n\r\n    constructor() ERC20(\"Gold\", \"GLD\") {\r\n        _mint(msg.sender, 10*10**18);\r\n    }\r\n    struct playTeam {\r\n        address[] name;\r\n        string hash;\r\n    }\r\n    mapping(uint => playTeam) history;\r\n\r\n    uint countMint = 0;\r\n    string connecTecs = \"farewell\";\r\n\r\n    function putBlock(uint _team, address[] memory _ptcp, string[] memory _hash) public\r\n    {\r\n        uint8 iterA = 0;\r\n        while(iterA != _ptcp.length)\r\n        {\r\n            //history[_team].name[iterA] = _ptcp[iterA];\r\n            history[_team].name.push(_ptcp[iterA]);\r\n            history[_team].hash = _hash[0];\r\n            _mint(_ptcp[iterA], 1*10**18);\r\n            ++iterA;\r\n            ++countMint;\r\n        }\r\n    }\r\n    function getname(uint _origin) public view returns(address){\r\n        return history[_origin].name[0];\r\n    }\r\n    function gethash(uint _origin) public view returns(string memory){\r\n        return history[_origin].hash;\r\n    }\r\n    function connection() public view returns(string memory){\r\n        return connecTecs;\r\n    }\r\n}\r\n\r\n//[\"0x5B38Da6a701c568545dCfcB03FcB875f56beddC4\", \"0xAb8483F64d9C6d1EcF9b849Ae677dD3315835cb2\"]\r\n//[\"hasha\", \"hashb\"]",
  "sourcePath": "D:\\workspace\\BBwork_block\\pogre\\trufflebox\\contracts\\SeverStore.sol",
  "compiler": {
    "name": "solc",
    "version": "0.8.11+commit.d7f03943.Emscripten.clang"
  },
  "schemaVersion": "3.4.2",
  "updatedAt": "2022-01-09T17:54:12.959Z",
  "networkType": "ethereum",
  "devdoc": {
    "kind": "dev",
    "methods": {
      "allowance(address,address)": {
        "details": "See {IERC20-allowance}."
      },
      "approve(address,uint256)": {
        "details": "See {IERC20-approve}. Requirements: - `spender` cannot be the zero address."
      },
      "balanceOf(address)": {
        "details": "See {IERC20-balanceOf}."
      },
      "decimals()": {
        "details": "Returns the number of decimals used to get its user representation. For example, if `decimals` equals `2`, a balance of `505` tokens should be displayed to a user as `5.05` (`505 / 10 ** 2`). Tokens usually opt for a value of 18, imitating the relationship between Ether and Wei. This is the value {ERC20} uses, unless this function is overridden; NOTE: This information is only used for _display_ purposes: it in no way affects any of the arithmetic of the contract, including {IERC20-balanceOf} and {IERC20-transfer}."
      },
      "decreaseAllowance(address,uint256)": {
        "details": "Atomically decreases the allowance granted to `spender` by the caller. This is an alternative to {approve} that can be used as a mitigation for problems described in {IERC20-approve}. Emits an {Approval} event indicating the updated allowance. Requirements: - `spender` cannot be the zero address. - `spender` must have allowance for the caller of at least `subtractedValue`."
      },
      "increaseAllowance(address,uint256)": {
        "details": "Atomically increases the allowance granted to `spender` by the caller. This is an alternative to {approve} that can be used as a mitigation for problems described in {IERC20-approve}. Emits an {Approval} event indicating the updated allowance. Requirements: - `spender` cannot be the zero address."
      },
      "name()": {
        "details": "Returns the name of the token."
      },
      "symbol()": {
        "details": "Returns the symbol of the token, usually a shorter version of the name."
      },
      "totalSupply()": {
        "details": "See {IERC20-totalSupply}."
      },
      "transfer(address,uint256)": {
        "details": "See {IERC20-transfer}. Requirements: - `recipient` cannot be the zero address. - the caller must have a balance of at least `amount`."
      },
      "transferFrom(address,address,uint256)": {
        "details": "See {IERC20-transferFrom}. Emits an {Approval} event indicating the updated allowance. This is not required by the EIP. See the note at the beginning of {ERC20}. Requirements: - `sender` and `recipient` cannot be the zero address. - `sender` must have a balance of at least `amount`. - the caller must have allowance for ``sender``'s tokens of at least `amount`."
      }
    },
    "version": 1
  },
  "userdoc": {
    "kind": "user",
    "methods": {},
    "version": 1
  }
}