{
  "contractName": "SeverStore",
  "abi": [
    {
      "inputs": [],
      "stateMutability": "nonpayable",
      "type": "constructor"
    },
    {
      "anonymous": false,
      "inputs": [
        {
          "indexed": true,
          "internalType": "address",
          "name": "owner",
          "type": "address"
        },
        {
          "indexed": true,
          "internalType": "address",
          "name": "spender",
          "type": "address"
        },
        {
          "indexed": false,
          "internalType": "uint256",
          "name": "value",
          "type": "uint256"
        }
      ],
      "name": "Approval",
      "type": "event"
    },
    {
      "anonymous": false,
      "inputs": [
        {
          "indexed": true,
          "internalType": "address",
          "name": "from",
          "type": "address"
        },
        {
          "indexed": true,
          "internalType": "address",
          "name": "to",
          "type": "address"
        },
        {
          "indexed": false,
          "internalType": "uint256",
          "name": "value",
          "type": "uint256"
        }
      ],
      "name": "Transfer",
      "type": "event"
    },
    {
      "inputs": [
        {
          "internalType": "address",
          "name": "owner",
          "type": "address"
        },
        {
          "internalType": "address",
          "name": "spender",
          "type": "address"
        }
      ],
      "name": "allowance",
      "outputs": [
        {
          "internalType": "uint256",
          "name": "",
          "type": "uint256"
        }
      ],
      "stateMutability": "view",
      "type": "function"
    },
    {
      "inputs": [
        {
          "internalType": "address",
          "name": "spender",
          "type": "address"
        },
        {
          "internalType": "uint256",
          "name": "amount",
          "type": "uint256"
        }
      ],
      "name": "approve",
      "outputs": [
        {
          "internalType": "bool",
          "name": "",
          "type": "bool"
        }
      ],
      "stateMutability": "nonpayable",
      "type": "function"
    },
    {
      "inputs": [
        {
          "internalType": "address",
          "name": "account",
          "type": "address"
        }
      ],
      "name": "balanceOf",
      "outputs": [
        {
          "internalType": "uint256",
          "name": "",
          "type": "uint256"
        }
      ],
      "stateMutability": "view",
      "type": "function"
    },
    {
      "inputs": [],
      "name": "decimals",
      "outputs": [
        {
          "internalType": "uint8",
          "name": "",
          "type": "uint8"
        }
      ],
      "stateMutability": "view",
      "type": "function"
    },
    {
      "inputs": [
        {
          "internalType": "address",
          "name": "spender",
          "type": "address"
        },
        {
          "internalType": "uint256",
          "name": "subtractedValue",
          "type": "uint256"
        }
      ],
      "name": "decreaseAllowance",
      "outputs": [
        {
          "internalType": "bool",
          "name": "",
          "type": "bool"
        }
      ],
      "stateMutability": "nonpayable",
      "type": "function"
    },
    {
      "inputs": [
        {
          "internalType": "address",
          "name": "spender",
          "type": "address"
        },
        {
          "internalType": "uint256",
          "name": "addedValue",
          "type": "uint256"
        }
      ],
      "name": "increaseAllowance",
      "outputs": [
        {
          "internalType": "bool",
          "name": "",
          "type": "bool"
        }
      ],
      "stateMutability": "nonpayable",
      "type": "function"
    },
    {
      "inputs": [],
      "name": "name",
      "outputs": [
        {
          "internalType": "string",
          "name": "",
          "type": "string"
        }
      ],
      "stateMutability": "view",
      "type": "function"
    },
    {
      "inputs": [],
      "name": "symbol",
      "outputs": [
        {
          "internalType": "string",
          "name": "",
          "type": "string"
        }
      ],
      "stateMutability": "view",
      "type": "function"
    },
    {
      "inputs": [],
      "name": "totalSupply",
      "outputs": [
        {
          "internalType": "uint256",
          "name": "",
          "type": "uint256"
        }
      ],
      "stateMutability": "view",
      "type": "function"
    },
    {
      "inputs": [
        {
          "internalType": "address",
          "name": "recipient",
          "type": "address"
        },
        {
          "internalType": "uint256",
          "name": "amount",
          "type": "uint256"
        }
      ],
      "name": "transfer",
      "outputs": [
        {
          "internalType": "bool",
          "name": "",
          "type": "bool"
        }
      ],
      "stateMutability": "nonpayable",
      "type": "function"
    },
    {
      "inputs": [
        {
          "internalType": "address",
          "name": "sender",
          "type": "address"
        },
        {
          "internalType": "address",
          "name": "recipient",
          "type": "address"
        },
        {
          "internalType": "uint256",
          "name": "amount",
          "type": "uint256"
        }
      ],
      "name": "transferFrom",
      "outputs": [
        {
          "internalType": "bool",
          "name": "",
          "type": "bool"
        }
      ],
      "stateMutability": "nonpayable",
      "type": "function"
    },
    {
      "inputs": [
        {
          "internalType": "uint256",
          "name": "_team",
          "type": "uint256"
        },
        {
          "internalType": "address[]",
          "name": "_ptcp",
          "type": "address[]"
        },
        {
          "internalType": "uint256[]",
          "name": "_stake",
          "type": "uint256[]"
        },
        {
          "internalType": "uint256",
          "name": "_price",
          "type": "uint256"
        }
      ],
      "name": "putBlock",
      "outputs": [],
      "stateMutability": "nonpayable",
      "type": "function"
    },
    {
      "inputs": [
        {
          "internalType": "uint256",
          "name": "_team",
          "type": "uint256"
        },
        {
          "internalType": "address",
          "name": "_buyer",
          "type": "address"
        },
        {
          "internalType": "address[]",
          "name": "_ptcp",
          "type": "address[]"
        }
      ],
      "name": "purchase",
      "outputs": [],
      "stateMutability": "nonpayable",
      "type": "function"
    },
    {
      "inputs": [
        {
          "internalType": "uint256",
          "name": "_team",
          "type": "uint256"
        }
      ],
      "name": "getPtcp",
      "outputs": [
        {
          "internalType": "address[]",
          "name": "",
          "type": "address[]"
        }
      ],
      "stateMutability": "view",
      "type": "function"
    },
    {
      "inputs": [
        {
          "internalType": "uint256",
          "name": "_team",
          "type": "uint256"
        }
      ],
      "name": "getStake",
      "outputs": [
        {
          "internalType": "uint256[]",
          "name": "",
          "type": "uint256[]"
        }
      ],
      "stateMutability": "view",
      "type": "function"
    },
    {
      "inputs": [
        {
          "internalType": "uint256",
          "name": "_team",
          "type": "uint256"
        }
      ],
      "name": "getOwner",
      "outputs": [
        {
          "internalType": "address",
          "name": "",
          "type": "address"
        }
      ],
      "stateMutability": "view",
      "type": "function"
    },
    {
      "inputs": [
        {
          "internalType": "uint256",
          "name": "_team",
          "type": "uint256"
        }
      ],
      "name": "getPrice",
      "outputs": [
        {
          "internalType": "uint256",
          "name": "",
          "type": "uint256"
        }
      ],
      "stateMutability": "view",
      "type": "function"
    }
  ],
  "bytecode": "0x608060405260006006553480156200001657600080fd5b506040518060400160405280600681526020017f54687265616400000000000000000000000000000000000000000000000000008152506040518060400160405280600481526020017f544852650000000000000000000000000000000000000000000000000000000081525081600390805190602001906200009b929190620000bd565b508060049080519060200190620000b4929190620000bd565b505050620001d2565b828054620000cb906200019c565b90600052602060002090601f016020900481019282620000ef57600085556200013b565b82601f106200010a57805160ff19168380011785556200013b565b828001600101855582156200013b579182015b828111156200013a5782518255916020019190600101906200011d565b5b5090506200014a91906200014e565b5090565b5b80821115620001695760008160009055506001016200014f565b5090565b7f4e487b7100000000000000000000000000000000000000000000000000000000600052602260045260246000fd5b60006002820490506001821680620001b557607f821691505b60208210811415620001cc57620001cb6200016d565b5b50919050565b6120b880620001e26000396000f3fe608060405234801561001057600080fd5b506004361061010b5760003560e01c806350ab647e116100a2578063a9059cbb11610071578063a9059cbb146102e0578063c41a360a14610310578063ce325bf814610340578063dd62ed3e14610370578063e7572230146103a05761010b565b806350ab647e1461023257806370a082311461026257806395d89b4114610292578063a457c2d7146102b05761010b565b806323b872dd116100de57806323b872dd14610198578063313ce567146101c857806339509351146101e657806344133b3c146102165761010b565b806306fdde0314610110578063095ea7b31461012e578063115e85f21461015e57806318160ddd1461017a575b600080fd5b6101186103d0565b60405161012591906112a5565b60405180910390f35b6101486004803603810190610143919061136f565b610462565b60405161015591906113ca565b60405180910390f35b6101786004803603810190610173919061152d565b610480565b005b6101826104e4565b60405161018f91906115ab565b60405180910390f35b6101b260048036038101906101ad91906115c6565b6104ee565b6040516101bf91906113ca565b60405180910390f35b6101d06105e6565b6040516101dd9190611635565b60405180910390f35b61020060048036038101906101fb919061136f565b6105ef565b60405161020d91906113ca565b60405180910390f35b610230600480360381019061022b9190611713565b61069b565b005b61024c600480360381019061024791906117b2565b6107ca565b604051610259919061189d565b60405180910390f35b61027c600480360381019061027791906118bf565b61086e565b60405161028991906115ab565b60405180910390f35b61029a6108b6565b6040516102a791906112a5565b60405180910390f35b6102ca60048036038101906102c5919061136f565b610948565b6040516102d791906113ca565b60405180910390f35b6102fa60048036038101906102f5919061136f565b610a33565b60405161030791906113ca565b60405180910390f35b61032a600480360381019061032591906117b2565b610a51565b60405161033791906118fb565b60405180910390f35b61035a600480360381019061035591906117b2565b610a91565b60405161036791906119d4565b60405180910390f35b61038a600480360381019061038591906119f6565b610aff565b60405161039791906115ab565b60405180910390f35b6103ba60048036038101906103b591906117b2565b610b86565b6040516103c791906115ab565b60405180910390f35b6060600380546103df90611a65565b80601f016020809104026020016040519081016040528092919081815260200182805461040b90611a65565b80156104585780601f1061042d57610100808354040283529160200191610458565b820191906000526020600020905b81548152906001019060200180831161043b57829003601f168201915b5050505050905090565b600061047661046f610ba6565b8484610bae565b6001905092915050565b816005600085815260200190815260200160002060020160006101000a81548173ffffffffffffffffffffffffffffffffffffffff021916908373ffffffffffffffffffffffffffffffffffffffff1602179055506104df8382610d79565b505050565b6000600254905090565b60006104fb848484610e21565b6000600160008673ffffffffffffffffffffffffffffffffffffffff1673ffffffffffffffffffffffffffffffffffffffff1681526020019081526020016000206000610546610ba6565b73ffffffffffffffffffffffffffffffffffffffff1673ffffffffffffffffffffffffffffffffffffffff168152602001908152602001600020549050828110156105c6576040517f08c379a00000000000000000000000000000000000000000000000000000000081526004016105bd90611b09565b60405180910390fd5b6105da856105d2610ba6565b858403610bae565b60019150509392505050565b60006012905090565b60006106916105fc610ba6565b84846001600061060a610ba6565b73ffffffffffffffffffffffffffffffffffffffff1673ffffffffffffffffffffffffffffffffffffffff16815260200190815260200160002060008873ffffffffffffffffffffffffffffffffffffffff1673ffffffffffffffffffffffffffffffffffffffff1681526020019081526020016000205461068c9190611b58565b610bae565b6001905092915050565b60005b83518160ff16146107a85760056000868152602001908152602001600020600101848260ff16815181106106d5576106d4611bae565b5b60200260200101519080600181540180825580915050600190039060005260206000200160009091909190916101000a81548173ffffffffffffffffffffffffffffffffffffffff021916908373ffffffffffffffffffffffffffffffffffffffff16021790555060056000868152602001908152602001600020600301838260ff168151811061076957610768611bae565b5b60200260200101519080600181540180825580915050600190039060005260206000200160009091909190915055806107a190611bdd565b905061069e565b8160056000878152602001908152602001600020600401819055505050505050565b60606005600083815260200190815260200160002060010180548060200260200160405190810160405280929190818152602001828054801561086257602002820191906000526020600020905b8160009054906101000a900473ffffffffffffffffffffffffffffffffffffffff1673ffffffffffffffffffffffffffffffffffffffff1681526020019060010190808311610818575b50505050509050919050565b60008060008373ffffffffffffffffffffffffffffffffffffffff1673ffffffffffffffffffffffffffffffffffffffff168152602001908152602001600020549050919050565b6060600480546108c590611a65565b80601f01602080910402602001604051908101604052809291908181526020018280546108f190611a65565b801561093e5780601f106109135761010080835404028352916020019161093e565b820191906000526020600020905b81548152906001019060200180831161092157829003601f168201915b5050505050905090565b60008060016000610957610ba6565b73ffffffffffffffffffffffffffffffffffffffff1673ffffffffffffffffffffffffffffffffffffffff16815260200190815260200160002060008573ffffffffffffffffffffffffffffffffffffffff1673ffffffffffffffffffffffffffffffffffffffff16815260200190815260200160002054905082811015610a14576040517f08c379a0000000000000000000000000000000000000000000000000000000008152600401610a0b90611c79565b60405180910390fd5b610a28610a1f610ba6565b85858403610bae565b600191505092915050565b6000610a47610a40610ba6565b8484610e21565b6001905092915050565b60006005600083815260200190815260200160002060020160009054906101000a900473ffffffffffffffffffffffffffffffffffffffff169050919050565b606060056000838152602001908152602001600020600301805480602002602001604051908101604052809291908181526020018280548015610af357602002820191906000526020600020905b815481526020019060010190808311610adf575b50505050509050919050565b6000600160008473ffffffffffffffffffffffffffffffffffffffff1673ffffffffffffffffffffffffffffffffffffffff16815260200190815260200160002060008373ffffffffffffffffffffffffffffffffffffffff1673ffffffffffffffffffffffffffffffffffffffff16815260200190815260200160002054905092915050565b600060056000838152602001908152602001600020600401549050919050565b600033905090565b600073ffffffffffffffffffffffffffffffffffffffff168373ffffffffffffffffffffffffffffffffffffffff161415610c1e576040517f08c379a0000000000000000000000000000000000000000000000000000000008152600401610c1590611d0b565b60405180910390fd5b600073ffffffffffffffffffffffffffffffffffffffff168273ffffffffffffffffffffffffffffffffffffffff161415610c8e576040517f08c379a0000000000000000000000000000000000000000000000000000000008152600401610c8590611d9d565b60405180910390fd5b80600160008573ffffffffffffffffffffffffffffffffffffffff1673ffffffffffffffffffffffffffffffffffffffff16815260200190815260200160002060008473ffffffffffffffffffffffffffffffffffffffff1673ffffffffffffffffffffffffffffffffffffffff168152602001908152602001600020819055508173ffffffffffffffffffffffffffffffffffffffff168373ffffffffffffffffffffffffffffffffffffffff167f8c5be1e5ebec7d5bd14f71427d1e84f3dd0314c0f7b2291e5b200ac8c7c3b92583604051610d6c91906115ab565b60405180910390a3505050565b60005b81518160ff1614610e1c57610df5828260ff1681518110610da057610d9f611bae565b5b6020026020010151600560008681526020019081526020016000206003018360ff1681548110610dd357610dd2611bae565b5b906000526020600020015466038d7ea4c68000610df09190611dbd565b6110a2565b80610dff90611bdd565b9050600660008154610e1090611e17565b91905081905550610d7c565b505050565b600073ffffffffffffffffffffffffffffffffffffffff168373ffffffffffffffffffffffffffffffffffffffff161415610e91576040517f08c379a0000000000000000000000000000000000000000000000000000000008152600401610e8890611ed2565b60405180910390fd5b600073ffffffffffffffffffffffffffffffffffffffff168273ffffffffffffffffffffffffffffffffffffffff161415610f01576040517f08c379a0000000000000000000000000000000000000000000000000000000008152600401610ef890611f64565b60405180910390fd5b610f0c838383611202565b60008060008573ffffffffffffffffffffffffffffffffffffffff1673ffffffffffffffffffffffffffffffffffffffff16815260200190815260200160002054905081811015610f92576040517f08c379a0000000000000000000000000000000000000000000000000000000008152600401610f8990611ff6565b60405180910390fd5b8181036000808673ffffffffffffffffffffffffffffffffffffffff1673ffffffffffffffffffffffffffffffffffffffff16815260200190815260200160002081905550816000808573ffffffffffffffffffffffffffffffffffffffff1673ffffffffffffffffffffffffffffffffffffffff16815260200190815260200160002060008282546110259190611b58565b925050819055508273ffffffffffffffffffffffffffffffffffffffff168473ffffffffffffffffffffffffffffffffffffffff167fddf252ad1be2c89b69c2b068fc378daa952ba7f163c4a11628f55a4df523b3ef8460405161108991906115ab565b60405180910390a361109c848484611207565b50505050565b600073ffffffffffffffffffffffffffffffffffffffff168273ffffffffffffffffffffffffffffffffffffffff161415611112576040517f08c379a000000000000000000000000000000000000000000000000000000000815260040161110990612062565b60405180910390fd5b61111e60008383611202565b80600260008282546111309190611b58565b92505081905550806000808473ffffffffffffffffffffffffffffffffffffffff1673ffffffffffffffffffffffffffffffffffffffff16815260200190815260200160002060008282546111859190611b58565b925050819055508173ffffffffffffffffffffffffffffffffffffffff16600073ffffffffffffffffffffffffffffffffffffffff167fddf252ad1be2c89b69c2b068fc378daa952ba7f163c4a11628f55a4df523b3ef836040516111ea91906115ab565b60405180910390a36111fe60008383611207565b5050565b505050565b505050565b600081519050919050565b600082825260208201905092915050565b60005b8381101561124657808201518184015260208101905061122b565b83811115611255576000848401525b50505050565b6000601f19601f8301169050919050565b60006112778261120c565b6112818185611217565b9350611291818560208601611228565b61129a8161125b565b840191505092915050565b600060208201905081810360008301526112bf818461126c565b905092915050565b6000604051905090565b600080fd5b600080fd5b600073ffffffffffffffffffffffffffffffffffffffff82169050919050565b6000611306826112db565b9050919050565b611316816112fb565b811461132157600080fd5b50565b6000813590506113338161130d565b92915050565b6000819050919050565b61134c81611339565b811461135757600080fd5b50565b60008135905061136981611343565b92915050565b60008060408385031215611386576113856112d1565b5b600061139485828601611324565b92505060206113a58582860161135a565b9150509250929050565b60008115159050919050565b6113c4816113af565b82525050565b60006020820190506113df60008301846113bb565b92915050565b600080fd5b7f4e487b7100000000000000000000000000000000000000000000000000000000600052604160045260246000fd5b6114228261125b565b810181811067ffffffffffffffff82111715611441576114406113ea565b5b80604052505050565b60006114546112c7565b90506114608282611419565b919050565b600067ffffffffffffffff8211156114805761147f6113ea565b5b602082029050602081019050919050565b600080fd5b60006114a96114a484611465565b61144a565b905080838252602082019050602084028301858111156114cc576114cb611491565b5b835b818110156114f557806114e18882611324565b8452602084019350506020810190506114ce565b5050509392505050565b600082601f830112611514576115136113e5565b5b8135611524848260208601611496565b91505092915050565b600080600060608486031215611546576115456112d1565b5b60006115548682870161135a565b935050602061156586828701611324565b925050604084013567ffffffffffffffff811115611586576115856112d6565b5b611592868287016114ff565b9150509250925092565b6115a581611339565b82525050565b60006020820190506115c0600083018461159c565b92915050565b6000806000606084860312156115df576115de6112d1565b5b60006115ed86828701611324565b93505060206115fe86828701611324565b925050604061160f8682870161135a565b9150509250925092565b600060ff82169050919050565b61162f81611619565b82525050565b600060208201905061164a6000830184611626565b92915050565b600067ffffffffffffffff82111561166b5761166a6113ea565b5b602082029050602081019050919050565b600061168f61168a84611650565b61144a565b905080838252602082019050602084028301858111156116b2576116b1611491565b5b835b818110156116db57806116c7888261135a565b8452602084019350506020810190506116b4565b5050509392505050565b600082601f8301126116fa576116f96113e5565b5b813561170a84826020860161167c565b91505092915050565b6000806000806080858703121561172d5761172c6112d1565b5b600061173b8782880161135a565b945050602085013567ffffffffffffffff81111561175c5761175b6112d6565b5b611768878288016114ff565b935050604085013567ffffffffffffffff811115611789576117886112d6565b5b611795878288016116e5565b92505060606117a68782880161135a565b91505092959194509250565b6000602082840312156117c8576117c76112d1565b5b60006117d68482850161135a565b91505092915050565b600081519050919050565b600082825260208201905092915050565b6000819050602082019050919050565b611814816112fb565b82525050565b6000611826838361180b565b60208301905092915050565b6000602082019050919050565b600061184a826117df565b61185481856117ea565b935061185f836117fb565b8060005b83811015611890578151611877888261181a565b975061188283611832565b925050600181019050611863565b5085935050505092915050565b600060208201905081810360008301526118b7818461183f565b905092915050565b6000602082840312156118d5576118d46112d1565b5b60006118e384828501611324565b91505092915050565b6118f5816112fb565b82525050565b600060208201905061191060008301846118ec565b92915050565b600081519050919050565b600082825260208201905092915050565b6000819050602082019050919050565b61194b81611339565b82525050565b600061195d8383611942565b60208301905092915050565b6000602082019050919050565b600061198182611916565b61198b8185611921565b935061199683611932565b8060005b838110156119c75781516119ae8882611951565b97506119b983611969565b92505060018101905061199a565b5085935050505092915050565b600060208201905081810360008301526119ee8184611976565b905092915050565b60008060408385031215611a0d57611a0c6112d1565b5b6000611a1b85828601611324565b9250506020611a2c85828601611324565b9150509250929050565b7f4e487b7100000000000000000000000000000000000000000000000000000000600052602260045260246000fd5b60006002820490506001821680611a7d57607f821691505b60208210811415611a9157611a90611a36565b5b50919050565b7f45524332303a207472616e7366657220616d6f756e742065786365656473206160008201527f6c6c6f77616e6365000000000000000000000000000000000000000000000000602082015250565b6000611af3602883611217565b9150611afe82611a97565b604082019050919050565b60006020820190508181036000830152611b2281611ae6565b9050919050565b7f4e487b7100000000000000000000000000000000000000000000000000000000600052601160045260246000fd5b6000611b6382611339565b9150611b6e83611339565b9250827fffffffffffffffffffffffffffffffffffffffffffffffffffffffffffffffff03821115611ba357611ba2611b29565b5b828201905092915050565b7f4e487b7100000000000000000000000000000000000000000000000000000000600052603260045260246000fd5b6000611be882611619565b915060ff821415611bfc57611bfb611b29565b5b600182019050919050565b7f45524332303a2064656372656173656420616c6c6f77616e63652062656c6f7760008201527f207a65726f000000000000000000000000000000000000000000000000000000602082015250565b6000611c63602583611217565b9150611c6e82611c07565b604082019050919050565b60006020820190508181036000830152611c9281611c56565b9050919050565b7f45524332303a20617070726f76652066726f6d20746865207a65726f2061646460008201527f7265737300000000000000000000000000000000000000000000000000000000602082015250565b6000611cf5602483611217565b9150611d0082611c99565b604082019050919050565b60006020820190508181036000830152611d2481611ce8565b9050919050565b7f45524332303a20617070726f766520746f20746865207a65726f20616464726560008201527f7373000000000000000000000000000000000000000000000000000000000000602082015250565b6000611d87602283611217565b9150611d9282611d2b565b604082019050919050565b60006020820190508181036000830152611db681611d7a565b9050919050565b6000611dc882611339565b9150611dd383611339565b9250817fffffffffffffffffffffffffffffffffffffffffffffffffffffffffffffffff0483118215151615611e0c57611e0b611b29565b5b828202905092915050565b6000611e2282611339565b91507fffffffffffffffffffffffffffffffffffffffffffffffffffffffffffffffff821415611e5557611e54611b29565b5b600182019050919050565b7f45524332303a207472616e736665722066726f6d20746865207a65726f20616460008201527f6472657373000000000000000000000000000000000000000000000000000000602082015250565b6000611ebc602583611217565b9150611ec782611e60565b604082019050919050565b60006020820190508181036000830152611eeb81611eaf565b9050919050565b7f45524332303a207472616e7366657220746f20746865207a65726f206164647260008201527f6573730000000000000000000000000000000000000000000000000000000000602082015250565b6000611f4e602383611217565b9150611f5982611ef2565b604082019050919050565b60006020820190508181036000830152611f7d81611f41565b9050919050565b7f45524332303a207472616e7366657220616d6f756e742065786365656473206260008201527f616c616e63650000000000000000000000000000000000000000000000000000602082015250565b6000611fe0602683611217565b9150611feb82611f84565b604082019050919050565b6000602082019050818103600083015261200f81611fd3565b9050919050565b7f45524332303a206d696e7420746f20746865207a65726f206164647265737300600082015250565b600061204c601f83611217565b915061205782612016565b602082019050919050565b6000602082019050818103600083015261207b8161203f565b905091905056fea2646970667358221220b0d3ee9ee1bb443387d41cf9c6ed82920fa87057fb15b36e6b6d889237be3f4a64736f6c634300080c0033",
  "immutableReferences": {},
  "source": "pragma solidity ^0.8.3;\r\n\r\nimport '../client/node_modules/openzeppelin-solidity/contracts/token/ERC20/ERC20.sol';\r\n\r\ncontract SeverStore is ERC20{\r\n\r\n    constructor() ERC20(\"Thread\", \"THRe\") {\r\n        //_mint(msg.sender, 10*10**18);\r\n    }\r\n    struct playTeam {\r\n        string title;\r\n        address[] name;\r\n        address owner;\r\n        uint[] stake;\r\n        uint price;\r\n    }\r\n    mapping(uint => playTeam) history;\r\n    uint countMint = 0;\r\n\r\n    function putBlock(\r\n        uint _team, \r\n        address[] memory _ptcp, \r\n        uint[] memory _stake, \r\n        uint _price)\r\n    external\r\n    {\r\n        uint8 iterA = 0;\r\n        while(iterA != _ptcp.length)\r\n        {\r\n            history[_team].name.push(_ptcp[iterA]);\r\n            history[_team].stake.push(_stake[iterA]);\r\n            ++iterA;\r\n        }\r\n        history[_team].price = _price;\r\n    }\r\n    function minting(uint _team, address[] memory _ptcp)\r\n    internal\r\n    {//_stake = at 0.001\r\n        uint8 iterA = 0;\r\n        while(iterA != _ptcp.length)\r\n        {\r\n            _mint(_ptcp[iterA], 1*10**15*history[_team].stake[iterA]);\r\n            ++iterA;\r\n            ++countMint;\r\n        }\r\n    }\r\n    function purchase(\r\n        uint _team, \r\n        address _buyer, \r\n        address[] memory _ptcp)\r\n    external\r\n    {\r\n        history[_team].owner = _buyer;\r\n        minting(_team, _ptcp);\r\n    }\r\n    function getPtcp(uint _team) public view returns(address[] memory){\r\n        return history[_team].name;\r\n    }\r\n    function getStake(uint _team) public view returns(uint[] memory){\r\n        return history[_team].stake;\r\n    }\r\n    function getOwner(uint _team) public view returns(address){\r\n        return history[_team].owner;\r\n    }\r\n    function getPrice(uint _team) public view returns(uint){\r\n        return history[_team].price;\r\n    }\r\n}\r\n\r\n//[\"0x5B38Da6a701c568545dCfcB03FcB875f56beddC4\", \"0xAb8483F64d9C6d1EcF9b849Ae677dD3315835cb2\"]\r\n//[\"hasha\", \"hashb\"]",
  "sourcePath": "D:\\workspace\\BBwork_block\\pogre\\trufflebox\\contracts\\SeverStore.sol",
  "compiler": {
    "name": "solc",
    "version": "0.8.12+commit.f00d7308.Emscripten.clang"
  },
  "schemaVersion": "3.4.2",
  "updatedAt": "2022-03-02T03:14:40.736Z",
  "devdoc": {
    "kind": "dev",
    "methods": {
      "allowance(address,address)": {
        "details": "See {IERC20-allowance}."
      },
      "approve(address,uint256)": {
        "details": "See {IERC20-approve}. Requirements: - `spender` cannot be the zero address."
      },
      "balanceOf(address)": {
        "details": "See {IERC20-balanceOf}."
      },
      "decimals()": {
        "details": "Returns the number of decimals used to get its user representation. For example, if `decimals` equals `2`, a balance of `505` tokens should be displayed to a user as `5.05` (`505 / 10 ** 2`). Tokens usually opt for a value of 18, imitating the relationship between Ether and Wei. This is the value {ERC20} uses, unless this function is overridden; NOTE: This information is only used for _display_ purposes: it in no way affects any of the arithmetic of the contract, including {IERC20-balanceOf} and {IERC20-transfer}."
      },
      "decreaseAllowance(address,uint256)": {
        "details": "Atomically decreases the allowance granted to `spender` by the caller. This is an alternative to {approve} that can be used as a mitigation for problems described in {IERC20-approve}. Emits an {Approval} event indicating the updated allowance. Requirements: - `spender` cannot be the zero address. - `spender` must have allowance for the caller of at least `subtractedValue`."
      },
      "increaseAllowance(address,uint256)": {
        "details": "Atomically increases the allowance granted to `spender` by the caller. This is an alternative to {approve} that can be used as a mitigation for problems described in {IERC20-approve}. Emits an {Approval} event indicating the updated allowance. Requirements: - `spender` cannot be the zero address."
      },
      "name()": {
        "details": "Returns the name of the token."
      },
      "symbol()": {
        "details": "Returns the symbol of the token, usually a shorter version of the name."
      },
      "totalSupply()": {
        "details": "See {IERC20-totalSupply}."
      },
      "transfer(address,uint256)": {
        "details": "See {IERC20-transfer}. Requirements: - `recipient` cannot be the zero address. - the caller must have a balance of at least `amount`."
      },
      "transferFrom(address,address,uint256)": {
        "details": "See {IERC20-transferFrom}. Emits an {Approval} event indicating the updated allowance. This is not required by the EIP. See the note at the beginning of {ERC20}. Requirements: - `sender` and `recipient` cannot be the zero address. - `sender` must have a balance of at least `amount`. - the caller must have allowance for ``sender``'s tokens of at least `amount`."
      }
    },
    "version": 1
  },
  "userdoc": {
    "kind": "user",
    "methods": {},
    "version": 1
  }
}